:020000040800F2
:10000000A08C01209D0100086B6200085F4700087A
:100010006962000893060008A7800008000000003D
:100020000000000000000000000000005D69000802
:10003000350C0008000000006D620008356A0008F9
:10004000B7010008B7010008B7010008B7010008B0
:10005000B7010008B7010008B7010008B7010008A0
:10006000B7010008B7010008B7010008010B00083C
:10007000B7010008B70100080D0B0008190B0008B4
:10008000250B0008310B0008B7010008B90600086D
:1000900095060008A1060008AD060008B701000893
:1000A000B7010008B7010008B7010008B701000850
:1000B000B7010008DD6A0008B70100086D470008B5
:1000C000614700088547000879470008B701000824
:1000D000ED620008797F0008857F0008B7010008FD
:1000E000B7010008B7010008B7010008B701000810
:1000F000B7010008E96A0008B70100083D0B0008D5
:10010000B7010008B7010008B7010008F96200084C
:10011000B7010008B7010008B7010008B7010008DF
:10012000B7010008B7010008490B0008550B00088B
:10013000B7010008B7010008B7010008E906000888
:10014000C5060008D1060008DD060008B701000852
:10015000B7010008B7010008610B0008B7010008EB
:10016000B7010008B7010008B7010008B70100088F
:10017000B7010008B7010008B7010008000000003F
:10018000B7010008B7010008DFF80CD000F044FA0E
:1001900000480047D5900208A08C012006488047FF
:1001A00006480047FEE7FEE7FEE7FEE7FEE7FEE75C
:1001B000FEE7FEE7FEE7FEE7CD6A000889010008DA
:1001C0002DE9F05F0546002092469B46884606468C
:1001D000814640241BE0284641464746224600F01F
:1001E0005CF953465A46C01A914110D3114618463D
:1001F000224600F043F92D1A67EB01084F462246CC
:100200000120002100F03AF917EB00094E41201EB1
:10021000A4F10104DFDC484631462A464346BDE8E6
:10022000F09F10B5441A0346944209D28418114431
:1002300003E011F8013D04F8013D521EF9D210BD52
:1002400040EA0104A40703D009E010C9121F10C33B
:10025000042AFAD203E011F8014B03F8014B521EB5
:10026000F9D210BDD2B201E000F8012B491EFBD239
:1002700070470022F6E710B513460A4604461946B1
:10028000FFF7F0FF204610BD421C10F8011B0029AB
:10029000FBD1801A704710B5002200E0521C835C2D
:1002A0008C5CA34201D1002BF8D1D8B2E1B2401A44
:1002B00010BD034611F8012B00F8012B002AF9D1DB
:1002C000184670472DE9FE4F81EA030404F000440C
:1002D00021F0004100944FF0000B23F0004350EA5E
:1002E00001045ED052EA03045BD0C3F30A54C1F3A5
:1002F0000A552C44A4F2F3340194A0FB0254C1F338
:10030000130141F48011C3F3130343F4801301FB81
:10031000024400FB034E840A970A44EA815447EAE8
:100320008357A4FB076802958D0A05FB07854FEAF2
:10033000932C04FB0C542705029D4FEA065847EA0C
:100340001637B5EB08056EEB070C870E920E47EAE1
:10035000811742EA8312A7FB0201B6EB0B0164EBA3
:1003600000042B0D43EA0C335E1844EB1C50DA46B4
:100370005146E7FB0201C5F313044FEA0B3343EA8E
:1003800014534FEA0432019C43EA0603A4F10C041F
:100390000294009CCDE900B400F09EF803B0BDE8E3
:1003A000F08F00200146F9E70EB540F2334102918B
:1003B0000021CDE900110A460B4600F08DF803B08C
:1003C00000BDC1F30A5210B5C1F3130140F2FF336F
:1003D00041F480119A4201DA002010BD40F233430B
:1003E0009A42A2F2334203DC524200F056F810BDAA
:1003F000904010BD00F0004230F000400AD0C10D26
:1004000001F56071C0F3160042EA0151C2084007CD
:1004100011437047002001467047000030B5041EAC
:1004200071F1000404DB4FF00044404264EB010131
:10043000141E73F1000405DB1C464FF000435242CA
:1004400063EB04038B4208BF824230BD30B5041E0B
:1004500071F1000404DB4FF00044404264EB010101
:10046000141E73F1000405DB1C464FF0004352429A
:1004700063EB0403994208BF904230BD202A04DB9D
:10048000203A00FA02F1002070479140C2F12003A7
:1004900020FA03F3194390407047202A04DB203AE6
:1004A00021FA02F00021704721FA02F3D040C2F194
:1004B0002002914008431946704710B5141E73F18D
:1004C000000408DA401C41F1000192185B411A4314
:1004D00001D120F0010010BD2DE9F04D92469B4660
:1004E00011B1B1FA81F202E0B0FA80F22032904606
:1004F000FFF7C4FF04460F4640EA0A0041EA0B0139
:1005000053465A46084313D0114653EA010019D006
:10051000C8F140025046FFF7C0FF05460E46504660
:1005200059464246FFF7AAFF084305D0012004E0E0
:1005300020463946BDE8F08D0020054346EAE076C6
:100540002C4337430A986305E40AA0EB0800002215
:10055000FD0A44EA47540A3002D500200146E9E783
:10056000010510196941DDE9084500196941BDE837
:10057000F04DA2E72DE9F04D00231A461B1A8A41DF
:1005800003DB00200146BDE8F08DC1F30A52C1F340
:10059000130141F480154FF0000BD10702D1001870
:1005A0006D41521E0027044640F2FF11384601EB10
:1005B000620A3E468046024600204FF48011FFF753
:1005C0006CFFC2197141BB1846EB0100B4EB030C80
:1005D00075EB000C04D3E41A65EB000517460E46D4
:1005E000241908F101006D4180463428E3DDF91932
:1005F00046EB0600091BA84103D24FF0FF32134619
:1006000001E0002213461BEB070046EB0A51BDE850
:10061000F04DFFF752BF0000064C074D06E0E068C2
:1006200040F0010394E8070098471034AC42F6D339
:10063000FFF7AEFDC48703080488030870B58C1863
:1006400010F8015B15F0070301D110F8013B2A11E6
:1006500006D110F8012B03E010F8016B01F8016BD3
:100660005B1EF9D12B0705D40023521E0DD401F8CF
:10067000013BFAE710F8013BCB1A921C03E013F898
:10068000015B01F8015B521EF9D5A142D8D30020CD
:1006900070BDFEE7014800F072BE000030C10120CD
:1006A000014800F06CBE000030C10120014800F09C
:1006B00066BE000030C10120014800F060BE0000AD
:1006C00030C10120014800F05ABE000058C101208D
:1006D000014800F054BE000058C10120014800F05C
:1006E0004EBE000058C10120014800F048BE000085
:1006F00058C1012070B50D0021D0F0B101281ED1E4
:100700000F4C204601F0ECF8286860606868A06033
:10071000A868E060E868206128696061287D6076EB
:10072000687DE076012084F82000204600F025FF57
:100730002046BDE8704000F045B8024CE1E770BDCE
:1007400058C1012030C1012010B5044800F03AF82A
:10075000BDE81040024800F035B8000030C101206B
:1007600058C101202DE9F04188B05FEA03080E9CD2
:1007700016460F4603D014B128B1012805D0012038
:1007800008B0BDE8F0810D4D00E00D4D1821684620
:10079000FFF76FFD042E0ED000970027CDE90176FC
:1007A000082C00D9082406AB424669462846049422
:1007B00000F086FCE4E700200090EFE730C1012064
:1007C00058C1012010B58AB0044628220D49684658
:1007D000FFF727FD0C4A20680021904202D10591C5
:1007E000049102E00E20CDE904106946204600F095
:1007F000C5FC204601F048F80321204600F04EFCDD
:100800000AB010BD84FF0208006400400068064979
:10081000884201D1002003E00449884202D101202E
:1008200007F056B9704700000064004000680040BF
:1008300010B5114C00220221204601F052FC00F0BC
:1008400041F9052000F002FA00220421204601F0BF
:1008500048FC052000F0FAF901220221204601F0AF
:1008600040FC052000F0F2F920460022BDE81040CF
:10087000022101F036BC00000008024070B51148AA
:1008800086B00025016841F0040101600068142170
:1008900000F0040005906846FFF7EBFC01240E20F1
:1008A000CDE90004084E69463046CDE9024501F025
:1008B0001BFB69463046CDE9004501F015FB06B04B
:1008C00070BD0000303802400008024010B5114CE5
:1008D00000220221204601F004FC00F0F3F805207C
:1008E00000F0B4F901220421204601F0FAFB0520B2
:1008F00000F0ACF901220221204601F0F2FB0520B4
:1009000000F0A4F920460022BDE81040022101F0C9
:10091000E8BB0000000802402DE9F0410746002432
:1009200000F0C0F81E2000F091F9124E00250022C0
:100930000221304601F0D5FB052000F087F90122A5
:100940000221304601F0CDFB6006040E0421304642
:1009500001F0C2FB08B1641CE4B26D1CEDB2082DBD
:10096000E5D327B1FFF764FF2046BDE8F081FFF72C
:10097000ADFFF9E70008024070B5054600F0A2F8A7
:10098000124E00220221304601F0ABFB052000F0A0
:100990005DF90024EA090421304601F0A2FB680653
:1009A000050E01220221304601F09BFB052000F0DC
:1009B0004DF900220221304601F093FB052000F0A2
:1009C00045F9641CE4B2082CE4D370BD0008024071
:1009D00010B500F077F80E4C01220421204601F0FA
:1009E00080FB01220221204601F07BFB1E2000F04B
:1009F0002DF900220421204601F073FB052000F0B0
:100A000025F920460022BDE81040022101F069BB13
:100A10000008024010B500F055F80C4C01220221EC
:100A2000204601F05EFB1E2000F010F90022042198
:100A3000204601F056FB052000F008F9204601226F
:100A4000BDE81040042101F04CBB0000000802404A
:100A500070B5002400F026F8114D0122042128462B
:100A600001F03FFB01220221284601F03AFB07E09A
:100A7000641CE4B2FA2C03D9FFF7CCFF012070BD4F
:100A8000052000F0E3F80421284601F025FB0028AA
:100A9000EED100220221284601F023FB002070BD88
:100AA000000802400648016821F030010160044856
:100AB0000C30016821F0300141F0100101607047F5
:100AC000000802400D48016821F0300141F010019A
:100AD0000160001D016821F004010160001D016832
:100AE00021F0300141F020010160001D016821F07A
:100AF000300141F010010160704700000008024021
:100B0000014800F0B9BF0000A8C30120014800F06F
:100B1000B3BF0000E8C20120014800F0ADBF0000F3
:100B200048C30120014800F0A7BF00003C1200208C
:100B3000014800F0A1BF00009C120020014800F015
:100B40009BBF000008C40120014800F095BF0000D1
:100B50007C110020014800F08FBF000088C20120F6
:100B6000014800F089BF0000DC1100200168182353
:100B7000CAB2103AB2FBF3F2054B6FF30901032A34
:100B80009B5CC36500D9091D81650846704700005C
:100B900094E7020810B5014600208B698A6A4FF07D
:100BA000C07453B1B3F5005F15D072B1012A0CD0F7
:100BB000022A0AD0032A09D104E01AB1012A06D078
:100BC000022A03D1C96AC90100D5012010BDC96A32
:100BD000A142FAD010BD002AF7D0012AF2D0022A91
:100BE000F3D0032AF3D010BD30B50468256825F48E
:100BF00080252560046863608368402B036803D008
:100C000099600068C26030BD9A600068C16030BD04
:100C10000648016841F0807101600548002141608B
:100C2000016841F00101016070470000FCED00E047
:100C3000001000E0704730B504464FF47A7502E0CA
:100C4000284600F003F8641EFAD230BD064A10B5FB
:100C500053680649064C0968B1FBF4F141435068FA
:100C6000C01A8842FBD310BD001000E00400002031
:100C700040420F0072B6FEE710B5FFF7FFFD0A4CC9
:100C800000220821204601F02CFA1420FFF7D3FFA0
:100C900001220821204601F024FABDE810404FF45B
:100CA0009670FFF7C8BF0000000802402DE9F04130
:100CB00015460E460446FFF78BFE7020FFF75CFEDC
:100CC000FFF7C6FEE0B2FFF757FEFFF7C1FEFFF7E2
:100CD0007FFE7120FFF750FEFFF7BAFE00246F1E63
:100CE00009E0BC4201D0012000E00020FFF714FE23
:100CF0003055641CE4B2AC42F3D3BDE8F041FFF7D9
:100D000089BE00002DE9FC470024424E8DF80440C6
:100D1000A14630782746401C3070012201A90220EC
:100D2000FFF7C4FF9DF80400DFF8EC80010754D002
:100D300000F00F01062950D2FF208840C04340F048
:100D4000C000454688F820004FF0010995F82010B2
:100D500009FA04F0014233D030480422694630F8E1
:100D60001400FFF7A3FF95F830009DF80010C007AE
:100D70009DF8010001F00F0100EB012105EB44009B
:100D80000AD0C1829DF802209DF8031002F00F02E4
:100D900001EB0221818109E081819DF802209DF80B
:100DA000031002F00F0201EB0221C1829DF8000046
:100DB0000821B1EB101F03D005EB4400C7828781E7
:100DC000641CE4B2052CC1D3A8894FF0010918B9FD
:100DD000E88A08B98DF8047037709DF80400C006E1
:100DE00010D198F82000010602D520F0800007E01D
:100DF0004FF6FF71A8F80C10A8F8161000F0E000EC
:100E000088F820003078F02801D90A203070484650
:100E1000BDE8FC870CC0012014C0012074FF02084B
:100E20002DE9FF4F044683B03420CDE900409B46B6
:100E300000274FF0800900BF2B48059A07EB0711E8
:100E400010F811301278934239D100EB410A05981D
:100E50009AF801104078814231D110231A46204679
:100E6000049904F067FE04F0C3FF002600250AEB96
:100E7000060800BFBBF1000F98F8021029FA05F030
:100E800001EA00010BD019B12046049904F0DAFC04
:100E9000641C0098A4B2201A10281FD007E0124842
:100EA0000C3809B1408800E0808804F07FFF6D1C99
:100EB000EDB2082DDED3761CF6B2202ED6D37F1CE1
:100EC0000198BFB28742B7D30848002143880288FF
:100ED00007B00846BDE8F04F04F02CBE0498009C13
:100EE000401C80B20490E6E71400002030C70120C7
:100EF0002DE9FF4F044683B00920CDE900409B4611
:100F000000274FF0800900BF07EB870000EB471177
:100F10002A48059A10F811301278934238D100EB24
:100F2000410A05989AF801104078814230D118237F
:100F30001A462046049904F0FDFD04F059FF0026EE
:100F400000250AEB060800BFBBF1000F98F802105D
:100F500029FA05F001EA00010BD019B120460499E5
:100F600004F070FC641C0098A4B2201A18281ED04B
:100F700006E0134809B1408800E0808804F016FFBD
:100F80006D1CEDB2082DDFD3761CF6B2482ED7D3F8
:100F90007F1C0198BFB28742B6D30A48002143881C
:100FA000028807B00846BDE8F04F04F0C3BD0498BE
:100FB000009C401C80B20490E6E70000FC06002084
:100FC0000800002030C701202DE9FF4F044683B000
:100FD0000820CDE900409B4600274FF0800900BF64
:100FE0002B48059A07EB871110F8113012789342BD
:100FF00038D100EB410A05989AF8011040788142F7
:1010000030D120231A462046049904F093FD04F0C1
:10101000EFFE002600250AEB060800BFBBF1000F1B
:1010200098F8021029FA05F001EA00010BD019B175
:101030002046049904F006FC641C0098A4B2201A0F
:1010400020281ED006E0134809B1408800E08088BF
:1010500004F0ACFE6D1CEDB2082DDFD3761CF6B2A9
:10106000802ED7D37F1C0198BFB28742B8D30A48DD
:1010700000214388028807B00846BDE8F04F04F01D
:1010800059BD0498009C401C80B20490E6E7000023
:10109000960900200800002030C7012090F8202089
:1010A000012A07D0022A05D0416A41F48021416219
:1010B00001207047006842690A434261002070477E
:1010C000F0B590F820500468A468012D05D0022DD9
:1010D00003D0416A41F480214DE014F0406F01D10A
:1010E000E50045D5C4F301640125A5401D608D6868
:1010F0004FF4C0739DB1CE6835434E6845EAC605CE
:10110000066803EB0417F5514FF4C275076805EB49
:1011100004150E697E51097D012905D009E00E886C
:10112000CD6845EA4655EBE701684E5946F48076AE
:101130004E511179D2F805504FF4C67641EA052197
:10114000056806EB0416A9511178D2F801204FF476
:10115000C47541EA0221026805EB0415515100688B
:1011600003EB0411425842F0010242500020F0BD4E
:10117000416A41F4001141620120F0BD10B590F8C0
:101180002020012A07D0022A05D0416A41F480219B
:101190004162012010BD3B48D0F8002242F001021C
:1011A000C0F80022D0F8002222F47C52C0F80022BD
:1011B000D0F800224B6A42EA0322C0F800220A7DDE
:1011C00002F01F0301229A40D0F81C329343C0F86A
:1011D0001C32CB69B3B9D0F80C329343C0F80C324F
:1011E0008C894B6864F31F434C6900EBC404C4F85A
:1011F00040320C890B6864F31F434C6900EBC40454
:10120000C4F84432CB69012B16D1D0F80C32134309
:10121000C0F80C320C884B6864F31F434C6900EB38
:10122000C404C4F840320C89CB6864F31F434C6992
:1012300000EBC404C4F844328B69002BD0F80432AC
:101240000ED01343C0F804320B69002BD0F81432CF
:1012500008D01343C0F81432096A012904D008E009
:101260009343EFE79343F5E7D0F81C121143C0F81E
:101270001C12D0F8001221F00101C0F80012002069
:1012800010BD000000640040704770B590F8204029
:10129000012C05D0022C03D0416A41F4802128E0C2
:1012A000046809B32469A40720D04FF4D8740568F2
:1012B00004EB01142D5915F00405956005682D59AE
:1012C0001AD0ED08556005682C5904F00204D4606A
:1012D0004FF4DA74056804EB01142E5906F00F067A
:1012E000082E0CD308250DE0E468DCE7416A41F4E0
:1012F00000114162012070BD6D0D1560E3E72D59AD
:1013000005F00F05156105682D59C5F30725956191
:1013100005682C59240C54614FF4DC72046802EB0C
:101320000112A4581C700468A458240A5C70046854
:10133000A458240C9C700468A258120EDA704FF462
:10134000DE72046802EB0112A4581C710468A458F0
:10135000240A5C710468A458240C9C710468A25887
:10136000120EDA71006829B1016941F020010161B2
:10137000002070BDC16841F02001C160F8E72DE98F
:10138000F05F0546006800244669D0F8049087683D
:10139000D0F80CB0D0F810A0D0F81880F10748D0E1
:1013A000F90714D001218160B80703D5284600F061
:1013B000C8FA0CE0780702D54FF4006407E038075C
:1013C00002D54FF4805402E0284600F0B9FAF8053F
:1013D00016D529684FF480708860B80503D5284673
:1013E00000F0B2FA0CE0780502D544F4005407E0AE
:1013F000380502D544F4804402E0284600F0A3FA00
:10140000F80316D529684FF480308860B80303D5F7
:10141000284600F09CFA0CE0780302D544F400441E
:1014200007E0380302D544F4803402E0284600F097
:101430008DFA300707D55FEACB6004D52968102004
:1014400044F40074C86070074FF0080707D55FEADE
:101450000B7004D52868C760284600F0CBF9B007A8
:1014600006D52868C068800702D0284600F0C4F975
:10147000700607D55FEACA6004D52968102044F4D5
:1014800080640861B00607D55FEA0A7004D5286851
:101490000761284600F0F4F9F00606D528680069CF
:1014A000800702D0284600F0ECF9B00308D55FEAC7
:1014B000C96005D5296810204860284600F0E2F987
:1014C000F00307D55FEA097004D52868476028460D
:1014D00000F03FFA300446D55FEA497040D5F00588
:1014E00004D55FEAC87001D044F00104B00504D50A
:1014F0005FEA887001D544F00204700504D55FEA04
:10150000487001D544F00404300529D518F0700F57
:1015100026D008F07000402815D006DC102809D02D
:1015200020280AD0302816D10AE050280ED0602892
:1015300011D10EE044F008040DE044F010040AE07C
:1015400044F0200407E044F0400404E044F0800448
:1015500001E044F480742868816921F070018161A0
:10156000296804204860002C05D0686A204368621E
:101570002846FFF789FEBDE8F09F70B5040003D050
:1015800094F8200010B104E0012070BD204600F066
:1015900081F82068016841F00101016000F0A6FDBA
:1015A0000546052604E000F0A1FD401B0A2811D8DD
:1015B00020684068C007F6D02068016821F0020169
:1015C000016000F093FD05460BE000F08FFD401B2D
:1015D0000A2806D9606A40F40030606284F820600E
:1015E000D2E7206840688007EFD4207E0128206879
:1015F00001683DD021F080010160607E01282068F3
:10160000016838D021F040010160A07E01282068E7
:10161000016833D021F020010160E07E01282068BC
:1016200001682ED041F010010160207F0128206860
:10163000016829D021F008010160607F012820683D
:10164000016824D021F004010160D4E902010843BB
:10165000D4E90412114308436168491E0843216814
:10166000C86100206062012084F82000002070BD65
:1016700041F08001C0E741F04001C5E741F02001A1
:10168000CAE721F01001CFE741F00801D4E741F0AB
:101690000401D9E7F0B587B0044614216846FEF787
:1016A000E8FD4F4B4F48DFF834E11968D4F800C02B
:1016B0004C4A02250326092710300024491CF44512
:1016C0003CD11960012907D1016841F00071016026
:1016D000006800F000700590106840F00100106094
:1016E000106802AB00F0010005904FF4C050CDE946
:1016F000000583E8D00069463B4800F0F5FB002276
:101700001146132001F0ECF9132001F0DCF900225E
:101710001146142001F0E4F9142001F0D4F900225C
:101720001146152001F0DCF9152001F0CCF900225A
:101730001146162001F0D4F916204BE0DFF8ACE09A
:10174000F44549D1D0F800C04CF0806CC0F800C01E
:10175000D0F800C001290CF0806CCDF814C01960DD
:1017600007D1016841F000710160006800F000706D
:101770000590106840F002001060106802AB00F0A5
:10178000020005904FF48250CDE9000583E8D000B7
:101790006946174800F0A8FB002211463F2001F0DF
:1017A0009FF93F2001F08FF900221146402001F0FF
:1017B00097F9402001F087F900221146412001F0FD
:1017C0008FF9412001F07FF900221146422001F0FB
:1017D00087F9422001F077F907B0F0BD00640040BE
:1017E0000000002030380240000002400068004045
:1017F000000402407047000010B5CAB004464FF420
:1018000082716846FEF735FD48AB41AA00212046AB
:10181000FFF73BFD17492068884201D1002003E013
:101820001549884222D101208DF800004398F8B173
:10183000DDF808018DF80400010A8DF80510010C8F
:101840008DF80610000E8DF8070045988DF80800F9
:10185000024648A90DF10900FEF7E3FC45986946E8
:10186000401DADF80200054804F025FD4AB010BD4A
:101870004198DFE70064004000680040FE3500202A
:10188000704770477047000070B5044690F820001C
:10189000012804D0606A40F40020606218E0022051
:1018A00084F820002068016821F00101016000F047
:1018B0001DFC05460EE000BF00F018FC401B0A2886
:1018C00008D9606A40F400306062052084F8200086
:1018D000012070BD20684068C007EDD1606270BD16
:1018E00070B5044690F82000022804D0606A40F4E5
:1018F0008010606214E02068016841F0010101601D
:1019000000F0F4FB05460DE000F0F0FB401B0A2858
:1019100008D9606A40F400306062052084F8200035
:10192000012070BD20684068C007EDD020680168C4
:1019300021F002010160012084F82000002070BD28
:101940007047FEF763BF7047FEF760BF7047FEF752
:101950005DBF70472DE9F0410446876D00F0C6FB7E
:10196000064694F835000025022806D080206065E0
:1019700084F834500120BDE8F0812068016821F02E
:10198000160101602068416921F080014161206CED
:1019900008B9A06C20B12068016821F0080101603D
:1019A0002068016821F0010101600CE000F09EFB5D
:1019B000801B052807D920206065032084F83500A6
:1019C00084F83450D7E720680068C007EED194F857
:1019D0005C103F208840B860012084F8350084F80E
:1019E00034500020C7E790F83510022903D0802139
:1019F000416501207047052180F8351000680168B5
:101A000021F0010101600020704770B504002BD067
:101A100094F83500022826D02068016821F00101E1
:101A200001602068002505602068456020688560A9
:101A30002068C56020680561216821204861204632
:101A4000FFF794F8E56325646564A564E56425659E
:101A500094F85C203F2191408160656584F83550A1
:101A600084F83450002070BD012070BD406D704777
:101A700090F83500704700002DE9F84304464FF018
:101A80000009CDF8009063484FF41651A56D006829
:101A9000B0FBF1F72E6894F85C10082000FA01F111
:101AA00031420FD021680A6852070BD50A6822F02C
:101AB00004020A6094F85C108840A860606D40F0F1
:101AC0000100606594F85C104FF0010808FA01F01D
:101AD000304208D021684969090604D5A860606DC4
:101AE00040F00200606594F85C10042088403042A9
:101AF00008D021680968890704D5A860606D40F0A6
:101B00000400606594F85C1010208840304218D0C2
:101B100021680968090714D5A8602068016849038D
:101B200004D50068000308D5A16C07E00168C90569
:101B300003D4016821F008010160216C09B120463D
:101B4000884794F85C1020208840304231D02168CA
:101B50000968C9062DD5A86094F8350005282068C5
:101B6000016806D0490347D5006800031DD4616CA5
:101B70001CE021F0160101602068416921F080011C
:101B80004161206C08B9A06C20B12068016821F087
:101B90000801016094F85C103F208840A86084F838
:101BA000358084F83490216D1FE0E16B09B1204647
:101BB0008847606D00282BD0606DC00714D00520C9
:101BC00084F835002068016821F001010160009867
:101BD000401C0090B84203D820680068C007F6D1C6
:101BE00084F8358084F83490E16C002910D001B07D
:101BF0002046BDE8F04308470168C905D5D401680F
:101C000021F01001016084F8358084F83490CCE72D
:101C1000BDE8F883040000202DE9F041044600F0FF
:101C200065FA06465CB1022084F83500002584F888
:101C300034502068016821F0010101600DE00120AD
:101C4000BDE8F08100F052FA801B052805D920205C
:101C50006065032084F83500F2E720680068C0075B
:101C6000F0D12268116820480140D4E901031843EB
:101C7000D4E903363343184363691843A36918430F
:101C8000E3691843236A18430843616A042903D1AE
:101C9000D4E90B1319430843106020684069666A51
:101CA00020F0070130460E43012704280CD1A06A1A
:101CB0000643E06A40B12046FEF76CFF20B14020A9
:101CC000606584F83570BAE7206846612046FEF703
:101CD0004DFF94F85C203F2191408160656584F858
:101CE00035700020ACE700003F8010F02DE9F04196
:101CF0000446866D90F83400002501280DD001209F
:101D000084F8340094F835700020012F07D084F84F
:101D1000340002252846BDE8F0810220FBE70227B7
:101D200084F8357060652046FEF75EFF94F85C101D
:101D30003F208840B0602068016841F016010160D2
:101D4000206C20B12068016841F008010160206822
:101D5000016841F001010160DCE7000070B5044654
:101D600000F0C4F90546601C02D004480078044421
:101D700000F0BCF9401BA042FAD370BD00C00120A6
:101D80002DE9F04F0022DFF838B101264FF00F099E
:101D900006FA02F401EA0403A3427DD122F003070C
:101DA0005F44D7F8088895074FEA157C09FA0CFAC2
:101DB0000AEA0805DFF80C81404502D14FF000081F
:101DC00032E0DFF80481404502D14FF001082BE0FA
:101DD000DFF8F880404502D14FF0020824E0DFF838
:101DE000F080404502D14FF003081DE0DFF8E480A9
:101DF000404502D14FF0040816E0DFF8DC80404592
:101E000002D14FF005080FE0DFF8D080404502D145
:101E10004FF0060808E0DFF8C880404502D14FF0D7
:101E2000070801E04FF0080808FA0CF8A84522D18D
:101E30002C4DD5F800C02CEA030CC5F800C005F104
:101E4000040CDCF800509D43CCF80050254D0C35B7
:101E5000D5F800C02CEA030CC5F800C02D1FD5F83A
:101E600000C02CEA030CC5F800C0D7F8085825EAD2
:101E70000A05C7F80858056857000323BB409D436F
:101E80000560D50800EB8505D5F820C057074FEA57
:101E9000D76809FA08F700E00CE02CEA070CC5F84F
:101EA00020C0C5689D43C5604568A54345608468FA
:101EB0009C438460521C102AFFF46AAFBDE8F08F87
:101EC00000300140000002400004024000080240CF
:101ED000000C0240001002400014024000180240B2
:101EE000001C0240003C01402DE9F84FDFF8BCA186
:101EF0000022012503264FF00F090AF1040BAAF175
:101F0000040E00BF0B6805FA02F42340A34270D10F
:101F10000F7907F00307012F01D0022F16D1876830
:101F20004FEA420806FA08FC27EA0C07D1F80CC071
:101F30000CFA08FC4CEA070CC0F808C04768A74335
:101F40000C79C4F3001494403C4344600C79E4439E
:101F5000A4070AD0C4684FEA420C06FA0CF7BC4347
:101F60008F6807FA0CF72743C7600C7904F0030465
:101F7000022C12D1D40800EB840CDCF82040570767
:101F8000FF0E09FA07F824EA0804D1F8108008FACD
:101F900007F848EA0408CCF8208004684FEA420CAD
:101FA00006FA0CF7BC430F7907F0030707FA0CF7A2
:101FB000274307604C6814F4403F70D03C4C2768BE
:101FC00047F480472760246822F0030704F4804424
:101FD0000094384C07EB040CDCF8084897074FEAEC
:101FE000177809FA08F7BC43334FB84202D10027EB
:101FF00024E054E0314FB84201D101271EE0304FB8
:10200000B84201D1022719E02E4FB84201D103276F
:1020100014E02D4FB84201D104270FE02B4FB842F6
:1020200001D105270AE02A4FB84201D1062705E071
:10203000284FB84201D1072700E0082707FA08F720
:102040002743CCF80878DAF800405746D1F804C0A6
:102050009C435FEACC2C00D51C433C60DBF800407D
:102060005F46D1F804C09C435FEA8C2C00D51C432A
:102070003C60DEF800407746D1F804C09C435FEA3C
:102080008C3C00D51C433C60084F083F3C68D1F8AD
:1020900004C09C435FEACC3C00D51C433C60521C0E
:1020A000102AFFF42FAFBDE8F88F0000083C014074
:1020B0004438024000300140000002400004024069
:1020C00000080240000C02400010024000140240D0
:1020D00000180240001C02400069084000D00120A6
:1020E00070470AB1816170470904FBE701488068C5
:1020F0007047000000C001207047704710B5040011
:1021000013D0242084F83D002068016821F00101EB
:102110000160204600F01CFB0020206484F83D0094
:1021200044F8300FA073207310BD012010BD2DE9BD
:10213000F041016804464A694E6890F83E00002567
:10214000D743FA0506D4F243D20503D46FF4807264
:1021500001254A61B90508D4F143C90505D42268AF
:102160006FF4007145F002055161790525D4F14302
:10217000C90522D4638D94F83D10226B202808D124
:102180003BB9212910D029290ED0282901D1212A93
:102190000AD022686FF48061516145F0040510286F
:1021A00006D0402804D008E0204602F037FF04E0C3
:1021B0002068016841F400710160380508D4F043DB
:1021C000C00505D421686FF4006045F0080548613A
:1021D000002D07D0206C284320642046BDE8F04144
:1021E00002F03CBBBDE8F0812DE9F0470268002118
:1021F0005368C66A90F83E4090F83D50102C12D0BB
:10220000402C10D0046C002C7DD05469E443A60708
:102210007AD4DE43B60577D4036C03B19169BDE887
:10222000F04702F0D7BE976951694FF42A0CC943B1
:102230005FEAC1784FF02A4904D066452AD04E455E
:1022400028D010E0DE43B6050DD4C16A614501D146
:10225000012103E0C16A494501D10821C162BDE8FD
:10226000F04702F01DBE0E0716D4DE43B60513D4A8
:10227000416CC9B21161416B09B1C96B29B9816B5C
:10228000002907D0C96B002904D00068416841F4D7
:1022900000614160BDE8F0878E0706D4DE43B605D5
:1022A00003D4BDE8F04702F06FBDFE4352687607E5
:1022B0004FEA02521DD4002AECDB0A0608D4DA43A6
:1022C000520505D4490705D5BDE8F04702F000BD29
:1022D0004907DFD4D9438905DCD4212D05D0402C12
:1022E000D8D1BDE8F04702F021BEBDE8F04702F0CA
:1022F000ADBC002ACEDB4A060BD4DA43520508D423
:10230000490708D501E00DE00EE0BDE8F04702F016
:10231000D5BB4907BED4D9438905BBD4BDE8F04736
:1023200002F05FBB916970E7E10606D4D9438905E5
:1023300003D4BDE8F04702F0B9BE2821212D27D0F3
:10234000292D25D0650655D4DD436D0552D464078B
:1023500052D590F83D30448D002C9BD01269446AD0
:102360002270426A521C4262428D521E4285428D48
:10237000002A8FD12A2B8DD10268536823F4806301
:1023800053602222026380F83D1000F08BFA81E74F
:10239000250623D4DD436D0520D4640720D590F8AD
:1023A0003D30448D002CF2D0446A24781461426A96
:1023B000521C4262428D521E4285428D002AE6D155
:1023C000292BE4D10268536823F4806353602122EF
:1023D000026380F83D1000F09FFA5BE76107D6D4F6
:1023E000D9438905D3D4418D0029D0D0416A0978D9
:1023F00011610AE06107CAD4D9438905C7D4418D68
:102400000029C4D01169426A1170416A491C4162B5
:10241000418D491E41853DE703F01AB870B50400AF
:1024200025D094F83D00002520B984F83C50204682
:1024300000F0C4F9242084F83D002068016821F0F0
:10244000010101602068016841F4004101602068D9
:10245000016821F40041016000F02EFC4D4A6168E2
:10246000914201D84C4900E04C49884201D20120F8
:1024700070BD4B492368B0FBF1F15E6826F03F0662
:102480000E435E606368934206D94FF496735943D6
:102490004FF47A73B1FBF3F12368491C1E6A26F0EE
:1024A0003F06314319626168914210D84900401ECD
:1024B000B0FBF1F2521CC2F30B02042A01D2042039
:1024C00022E0B0FBF1F0401CC0F30B001CE0A2685E
:1024D000F2B301EBC10303EB0116431EB3FBF6F3AA
:1024E0005B1C43F480431B0549D092B301EBC1024E
:1024F00002EB0111401EB0FBF1F0401CC0F30B00D9
:1025000040F4804040F400402168CA694CF6FF73F3
:102510009A431043C861D4E9071001432068026858
:1025200022F0C00211430160D4E903010143206895
:10253000826848F2FF339A4311438160D4E9050170
:1025400008432168CA6822F0FF021043C86001E016
:102550000EE016E02068016841F001010160256489
:10256000202084F83D00256384F83E50002070BD93
:1025700001EB4106431EB3FBF6F35B1CB3E70120FE
:10258000C2E701EB4101401EB0FBF1F0401CC0F37B
:102590000B00B7E7A086010080841E0000093D0003
:1025A00040420F0070B5184A0168C2B0914202D192
:1025B0000426164D04E0164A914223D1154D0526F6
:1025C000808C401B84B24FF48070844201D9044651
:1025D00000E08CB14FF482716846FDF74AFE8DF839
:1025E0000060ADF802402246294601A8FDF719FE19
:1025F0006946094803F05FFE42B03046BDE87040CE
:1026000002F0A4BF42B070BD005400403EC701209C
:10261000005800403EC80120805600207047704797
:102620002DE9F84F1F4690468A460446DDF828906B
:10263000FFF75CFD054694F83D0020287FD1192363
:10264000012240492046009502F00AFE002876D17A
:1026500094F83C00012872D0012084F83C002068E6
:102660000168C90703D1016841F0010101602068D8
:10267000016821F400610160212084F83D001020F0
:1026800084F83E0000262664C4F824806785608DA7
:1026900020852D48E0622B464A465146204602F0EE
:1026A00087FA90B9206841698069009036E02A462F
:1026B0004946204602F07AFE50B1206C042804D12D
:1026C0002068016841F4007101600120BDE8F88FC5
:1026D000606A216800780861606A401C6062618DF0
:1026E000491E6185218D491E89B221852268536961
:1026F000DB435B070BD451B100781061606A401C6A
:102700006062608D401E6085208D401E20852A46B7
:102710004946204602F078FD0028CED1208D0028C1
:10272000C5D154F83D0B016841F4007101602020CF
:1027300004F81E09E67766770020C7E7FFE7022066
:10274000C4E70000020010000000FFFF7047704760
:1027500010B50068154A1649164C904213D1086806
:1027600020F40010086080212046FFF709FBA11526
:102770002046FFF705FB1F2000F094F9BDE810404C
:10278000202000F08FB90C4A90420ED1086820F446
:102790008000086011152046FFF7F2FA2046BDE8D8
:1027A00010404FF40061FFF7EBBA10BD0054004039
:1027B000403802400004024000580040F0B587B0A5
:1027C000044614216846FDF754FD2768324CDFF8B3
:1027D000C4C0002230491223032504262F48103498
:1027E000674527D10F6847F002070F60096802AFFD
:1027F00001F002010591E901CDE9001387E86400C9
:102800006946FFF771FB206840F4001020602068E3
:10281000002200F40010059011461F2000F060F91E
:102820001F2000F050F900221146202000F058F936
:1028300020202BE0DFF868C0674529D10F6847F0FA
:1028400002070F60096802AF01F0020105914FF421
:102850004061CDE9001387E864006946FFF744FB57
:10286000206840F4800020602068002200F480008E
:1028700005901146212000F033F9212000F023F9C2
:1028800000221146222000F02BF9222000F01BF933
:1028900007B0F0BD00540040303802400004024050
:1028A0000058004010B5C2B004464FF4827168462B
:1028B000FDF7DFFC13492068884204D104208DF81D
:1028C0000000114906E01149884219D1052010493C
:1028D0008DF80000608DC0F5807082B24FF480707A
:1028E000824200D90246ADF8022001A8FDF799FC0A
:1028F0006946084803F0DFFC9DF8000002F026FE60
:1029000042B010BD005400403EC7012000580040B6
:102910003EC80120805600207047000010B590F896
:102920003D30202B34D161B15AB190F83C30012BAD
:102930002ED0012380F83C3003681C68E40702D0E5
:1029400005E0012010BD1C6844F001041C60036810
:102950001C6824F400641C60222380F83D3020238E
:1029600080F83E300023036441624285418D018539
:102970000849C16201680A6842F480620A6080F80E
:102980003C300068416841F4E0614160002010BDC6
:10299000022010BD0000FFFF024881680278114448
:1029A0008160704700C001200B4810B5016841F4F8
:1029B00000710160016841F480610160016841F4C7
:1029C00080710160032000F0ABF80F2000F006F8E2
:1029D00000F050F8002010BD003C024030B5054624
:1029E0001F4887B00024016841F4807101600068CD
:1029F00006A900F48070009001A800F03DF9049849
:102A0000A8B100F059F940001649174AB0FBF1F19E
:102A10001648491E026040F2E732C0E90324C0E9CB
:102A20000114846101F036F9040003D015E000F0D0
:102A300043F9E9E70D4801F079F904000DD12D20A3
:102A400000F041F8102D07D2002229462D2000F079
:102A500047F80748056000E0012407B0204630BD74
:102A60004038024040420F000020004068C401206E
:102A700004C001200A4808B5016841F480410160A2
:102A8000006800F4804000900548001F016841F094
:102A900080510160006800F08050009008BD000087
:102AA0004438024000280DDB00F01F020121914054
:102AB0004009800000F1E020C0F88011BFF34F8F83
:102AC000BFF36F8F7047002809DB00F01F02012160
:102AD00091404009800000F1E020C0F800117047EB
:102AE000F0B40E4B1B680C46C3F30223C3F1070579
:102AF000042D00D90425191D072901D2002300E067
:102B0000DB1E012606FA05F1491E214099409E4030
:102B1000761E16403143F0BC05F0DEBA0CED00E045
:102B2000064900F0070208684FF6FF03184040EA24
:102B30000220034A10430860704700000CED00E0DB
:102B40000000FA052DE9F0470E46050065D0DFF8D4
:102B50001481D8F80000F7B200F00700B04207D2A5
:102B600088F80070D8F8000000F00700B04254D197
:102B700028683D4C810712D5400703D5206840F4F2
:102B8000E05020602878000703D5206840F46040BA
:102B900020602068A96820F0F000084320602878B1
:102BA000C0072DD0304968680839012812D00228A2
:102BB00013D0032811D00968890700292DDA21686C
:102BC00021F0030101432160FFF790FA814641F2B1
:102BD000883A0EE009688903EFE709688901ECE7A4
:102BE000FFF784FAA0EB0901514502D90320BDE8A3
:102BF000F0872068696800F00C00B0EB810FEFD11E
:102C0000D8F80010404601F00701B14207D907701B
:102C1000006800F00700B04201D00120E7E7287803
:102C2000400705D52068E96820F4E050084320609B
:102C30002878000706D52068296920F4604040EA1A
:102C4000C100206000F058F82168084AC1F3031160
:102C5000515CC8400649086006480068FFF7BEFEA0
:102C60000020C4E7003C0240083802409CE702080C
:102C70000400002004C001200F2202600C4A1368E7
:102C800003F003034360136803F0F00383601368E9
:102C900003F4E053C36012684FF4E05303EAD20236
:102CA00002610448006800F00700086070470000F7
:102CB00008380240003C02400448054900680968A1
:102CC000044AC1F38221515CC840704704000020CF
:102CD00008380240ACE70208044805490068096862
:102CE000044AC1F34231515CC840704704000020DF
:102CF00008380240ACE70208154810B5006810F02B
:102D00000C02144813D01449042A0FD0082A0ED1FB
:102D10000F4C241F2268236802F03F025B0207D594
:102D20002068C0F38810A0FB010106E0084610BD32
:102D30002168C1F38811A1FB00010023FDF740FACF
:102D40002168C1F30141491C4900B0FBF1F010BDFD
:102D5000083802400024F400001BB7002DE9F84FAA
:102D600004006ED02078DFF84C93C007A9F1040569
:102D70004AD009F104000168C1F38101012908D09A
:102D80000068C0F3810002280AD1D9F8000040028F
:102D900006D52868800337D560680028E1D033E085
:102DA0006068B0F5803F10D0B0F5A02F286810D033
:102DB00020F480302860286820F480202860606833
:102DC000A8B1FFF793F906460DE0286840F480307B
:102DD000F4E740F480202860F7E700BFFFF786F9AA
:102DE000801B642873D828688003F7D50CE0FFF7B0
:102DF0007DF9064605E000BFFFF778F9801B6428DF
:102E0000F0D828688003F7D42078DFF8AC828007F8
:102E10004FF0000A3ED5A748001D016811F00C0FC5
:102E200008D00068C0F3810002280BD1D9F8000057
:102E3000400207D42868800716D5E068012800D131
:102E400012E033E1E068B8B10120C8F80000FFF7F4
:102E50004DF9064605E000BFFFF748F9801B022840
:102E6000C0D828688007F7D52868216920F0F800C5
:102E700040EAC10028600DE0C8F800A0FFF736F96D
:102E8000064604E0FFF732F9801B02281FD82868A5
:102E90008007F7D42078000722D5864F87486169DC
:102EA000703771B101210160FFF720F9064604E097
:102EB000FFF71CF9801B022809D838688007F7D56E
:102EC0000EE0C0F800A0FFF711F9064605E082E029
:102ED000FFF70CF9801B02287DD838688007F7D4EB
:102EE0002078400768D5DFF8CCB100270BF13C0B08
:102EF000DBF80000C0000BD4DBF8001041F080517B
:102F0000CBF80010DBF80000012700F080500090A3
:102F10006B4E3068C00510D4306840F4807030606B
:102F2000FFF7E4F8009005E0FFF7E0F80099401A99
:102F3000022850D83068C005F6D55E4EA0686C36C1
:102F400001280FD00528306810D020F00100306033
:102F5000306820F004003060A068B8B1FFF7C6F810
:102F600000900FE0306840F00100F4E740F004000A
:102F70003060F7E7FFF7BAF80099411A41F288305C
:102F8000814266D830688007F4D50EE0FFF7AEF8CE
:102F9000009007E0FFF7AAF80099411A41F2883043
:102FA000814256D830688007F4D42FB1DBF8001086
:102FB00021F08051CBF80010A069C8B33D49091D2C
:102FC0000968C1F3810102294AD00228504607D07E
:102FD000C8F8600000E03CE0FFF788F804463BE0FA
:102FE0004746C8F86000FFF781F8064605E000BFD5
:102FF000FFF77CF8801B02282BD828688001F7D4C3
:10300000D4E907010843A16A2E4A490802EB0141AD
:10301000626A41EA8211084394F82C1040EA016187
:10302000C9F8001001203866FFF760F8044606E092
:103030003EE000BFFFF75AF8001B022809D82868B5
:103040008001F7D534E000BFFFF750F8001B0228DD
:1030500002D90320BDE8F88F28688001F4D427E066
:103060000128F7D0D9F80000E26900F4800191420C
:103070001CD1226A00F03F01914217D147F6C0717E
:10308000626A0140B1EB821F10D1A26A4FF0FF3398
:1030900000F4403103EB5202B1EB024F06D194F839
:1030A0002C1000F07060B0EB016F01D00120D1E76F
:1030B0000020CFE70438024000004742800E47421C
:1030C000007000400000FFFF2DE9FC410446444829
:1030D00045F6C05100260068B0FBF1F0642148437A
:1030E000019000902068416821F020014160206833
:1030F000416809060CD53B496164009900295DD0FF
:10310000491E009194F851100729F6D101990091B8
:10311000416849060BD5344921640099F1B3491E31
:10312000009194F851100729F7D101990091406856
:103130004FF0400780074FF0000514D5A06C90B108
:103140000565A06CFEF706FC00B167652068416864
:1031500021F0020141602068009971B3491E00917D
:1031600081688907F8D520684068C00711D0E06CF5
:1031700078B10565E06CFEF7EDFB00B1676520688E
:10318000016821F0400101602068416821F00101DF
:103190004160E587E586606D402800E013E01CD0C3
:1031A00065652068C1688168009180680090012091
:1031B00084F851003046BDE8FC8109E0616D41F0C2
:1031C00040016165A2E7616D41F040016165ACE7D6
:1031D000606D40F040006065C5E70126E1E7000052
:1031E000040000205D6300080563000810B50400BA
:1031F00011D0022084F851002068016821F04001BC
:103200000160204600F0E6F80020606584F8510077
:1032100084F8500010BD012010BD704738B501681A
:1032200004464A688868C043430606D5C30704D1EC
:10323000D3435B0601D4216C05E0830708D4D34354
:103240001B0605D4616C01B02046BDE8304008473C
:10325000830603D5430601D5C30551D4D3439B064A
:103260004ED443060AD494F85130032B49D0636DF1
:1032700043F004036365CB688B680093830609D42D
:10328000636D43F0010363658B6800930B6823F063
:1032900040030B60C00506D4606D40F00800606517
:1032A000206880680090606D002829D020684168FF
:1032B00021F0E0014160012084F85100900701D421
:1032C000D00722D02068416821F003014160114DF0
:1032D000E06C40B10565E06CFEF785FB18B1606DF0
:1032E00040F040006065A06C002809D00565A06C26
:1032F000FEF779FB002803D0606D40F04000606568
:1033000038BDC8688868009038BD2046FFF785FF43
:1033100038BD00007963000870B5040009D0606A08
:10332000002540B125616561A56294F8510040B166
:103330000CE0012070BD6068B0F5827FF4D0E561DB
:10334000F2E784F85050204600F094F8022084F808
:1033500051002068016821F040010160A0882189A6
:1033600000F4827001F404410843A18901F4006172
:103370000843217C01F002010843217D01F0010195
:103380000843218B01F400710843217F01F03801CB
:10339000084394F8201001F080010843218D01F4C6
:1033A0000051084321680860A069042101EA104027
:1033B00094F8241001F01001084321684860206847
:1033C000C16921F40061C1616565012084F8510083
:1033D000002070BD10B5044601681F4881420DD120
:1033E0001E48016821F480510160E0211C48FEF76D
:1033F000C7FCA06CBDE81040FEF707BB1748194A90
:10340000001F91420FD1016821F4804101609100B9
:103410001548FEF7B5FCE06CFEF7F7FAA06CFEF776
:10342000F4FA242012E0114A914213D1016821F4E8
:10343000004101604FF4E0510D48FEF7A1FCE06C43
:10344000FEF7E3FAA06CFEF7E0FA3320BDE8104087
:10345000FFF728BB10BD0000003001404438024097
:10346000000002400038004000040240003C0040E0
:10347000000802402DE9F04786B004461421684652
:10348000FCF7F7FE8B488A4BD4F800C002210322D8
:103490004027002506154FF0050A9C453ED1854B77
:1034A0001433D3F800C04CF4805CC3F800C01B6830
:1034B00003F480530593036843F00103036000683D
:1034C00000F001000590E0208DE82300CDE9032AFB
:1034D00069467948FEF708FDDFF8E4817749404600
:1034E000C8F80010C0E90356C8F81450C8F81850BE
:1034F000C8F81C504FF0C061C8F82050C8E9011747
:10350000C8F82450FEF788FB08B1FDF7B3FBC4F8F8
:103510004880C8F8384006B0BDE8F087654BDFF852
:10352000A4811033C4455DD1D3F800C0A9464CF442
:10353000804CC3F800C01B6803F480430593036804
:1035400043F002030360006800F0020005904FF4AE
:1035500060408DE82300CDE9032A69465A48FEF70A
:10356000C3FCDFF85C81594908F160084046C0E9B6
:103570000015C8F80850C0E90356C8F81450C8F838
:103580001850C8F81C50C8F82050C8F82450FEF74E
:1035900043FB08B1FDF76EFB494D4C48C4F84C8025
:1035A000C0351830C8F838402860C5E90197C5E92A
:1035B0000396C5F81490C5F81890C5F81C90C5F886
:1035C00020902846C5F82490FEF726FB08B1FDF7A9
:1035D00051FBA564002211462420AC63FFF780FA5A
:1035E000242062E0DFF8E880C44594D1D3F800C01D
:1035F0004CF4004CC3F800C01B6803F4004305936F
:10360000036843F004030360006800F004000590C1
:103610004FF4E0508DE823000620CDE903206946F1
:103620002C48FEF761FCDFF8B08028494046483955
:10363000C0E90015C8F80850C0E90356C8F814508E
:10364000C8F81850C8F81C50C8F82050C8F82450C2
:10365000FEF7E2FA08B1FDF70DFBC4F84C80C8F89C
:103660003840DFF87480194908F16008603188E853
:10367000A2004046C0E90356C8F81450C8F81850D4
:10368000C8F81C50C8F82050C8F82450FEF7C4FAF7
:1036900008B1FDF7EFFAC4F8488000221146332044
:1036A000C8F83840FFF71CFA3320FFF70CFA32E76E
:1036B00000300140303802400000024058640240AF
:1036C00088C20120003800400004024058600240D7
:1036D000003C004000080240A8C3012070B5044629
:1036E00090F8510001282AD121B11AB1A068042311
:1036F00010B105E0012070BD6568B5F5827F15D079
:1037000094F85050012D1AD0012584F8505084F8B7
:10371000513000256565A163A287E2872564656451
:10372000A586E586B0F5004F0BD014E084F8513043
:103730002046BDE8704013460A4600F03BB902201F
:1037400070BD2068016821F04001016020680168B7
:1037500021F480410160E16C17480864E16C17486E
:10376000C863E16C1648C864E06C0565E38F2168A6
:10377000A26B0C31E06CFEF7B9FA30B1606D40F02D
:103780001000606584F85050B4E72068016849066D
:1037900003D4016841F04001016084F85050206872
:1037A000416841F0200141602068416841F0010119
:1037B0004160002070BD0000AB630008C9630008D1
:1037C0008963000870B505464068C2B0002830D152
:1037D0004FF482716846FCF74CFD1749286888420F
:1037E00004D106208DF80000144E06E014498842EA
:1037F0001FD10720134E8DF80000E86C0068406868
:103800004FF48074C0F580700204120C01D0A24203
:1038100000D92246ADF80220314601A8FCF701FD8F
:10382000224631462846FFF759FF6946064802F00E
:1038300042FD42B070BD0000003800407C13002003
:10384000003C00407C1400200277002070472DE9E6
:10385000F84F984616468A460446FEF747FC8146CE
:1038600094F8510001281ED1BAF1000F73D0002E38
:1038700071D094F85000012815D0012784F85070B9
:10388000032084F8510000256565C4F830A0A686A1
:10389000E686A563A587E58765642564A068B0F51D
:1038A000004F03D00CE00220BDE8F88F20680168CB
:1038B00021F0400101602068016841F4804101600D
:1038C00020680168490603D4016841F040010160A5
:1038D000E068B0F5006F606803D048B3012E27D0D0
:1038E00047E008B1012E1FD1206B21680088C86015
:1038F00006E020688168890709D5216B0988C160C5
:10390000206B801C2063E08E401EE0860CE0FEF7FA
:10391000EDFBA0EB0901414503D3B8F1FF3F03D014
:1039200035E0B8F1000F32D0E08E0028E1D123E07D
:10393000206B21680078087306E020688168890799
:103940000AD5216B09780173206B401C2063E08E3F
:10395000401EE0860DE02BE0FEF7C8FBA0EB09015E
:10396000414503D3B8F1FF3F03D010E0B8F1000F99
:103970000DD0E08E0028E0D14A464146204602F0B4
:10398000E5FD08B120206065A06830B109E084F849
:10399000517084F85050032086E72068C168806821
:1039A000009084F8517004F8505F60680028F3D0EC
:1039B000012079E770B5044690F851006568012848
:1039C00006D0B5F5827F3AD1A568A5BB042836D1CB
:1039D00091B38AB383B394F8500001282FD001200B
:1039E00084F8500094F85100042802D0052084F88F
:1039F0005100002565652163A386E386A263A38742
:103A0000E3872564656494F85100042819D0E16CBB
:103A1000274808642748E16CC863E16C2648C864FD
:103A2000E06C0565E38F2168A26B0C31E06CFEF75A
:103A30005DF900BB0AE002E0FFE7012070BD022053
:103A400070BDE16C1D4808641D48E4E720684168CA
:103A500041F001014160A06C0564A06CC563A06CDD
:103A6000C564A06C0565E38E2268216B0C32A06CE6
:103A7000FEF73CF930B1606D40F01000606584F8ED
:103A80005050DAE720680168490603D4016841F024
:103A90004001016084F850502068416841F02001E5
:103AA00041602068416841F002014160002070BD22
:103AB000BF6300089764000889630008AB630008CF
:103AC000C963000870B5044690F8510001281CD164
:103AD000C9B1C2B194F85000012816D0012084F871
:103AE0005000032084F85100002565652163A286FB
:103AF000E286A56365642564A587E587A068B0F5BF
:103B0000004F04D00DE0012070BD022070BD206880
:103B1000016821F0400101602068016841F48041A2
:103B20000160A16C17480864A16C1748C863A16CB8
:103B30001648C864A06C0565E38E2268216B0C32C0
:103B4000A06CFEF7D3F830B1606D40F010006065F6
:103B500084F85050D7E720680168490603D401680B
:103B600041F04001016084F850502068416841F004
:103B7000200141602068416841F00201416000205D
:103B800070BD0000B5630008336400088963000855
:103B900070B500681349884217D18168C943090686
:103BA000FBD5114C6078002568B165700122202199
:103BB0000E48FEF796FA2570A068002804D0BDE8EC
:103BC000704017F017BB257070BD0949884201D1BC
:103BD000062003E007498842F6D10720BDE870407F
:103BE00003F076BF003001400800002000100240C2
:103BF00000380040003C00407047704770477047F5
:103C00007047000070B590F83C20012A32D00124A2
:103C100080F83C40022280F83D2003685A689D6885
:103C200022F070060A6832435A60134B02689A42C7
:103C300014D0B2F1804F11D0104B9A420ED0104BDD
:103C40009A420BD00F4B9A4208D00F4B9A4205D0A4
:103C50000E4B9A4202D00E4B9A4204D1496825F08D
:103C600080031943916080F83D40002180F83C10AA
:103C7000084670BD022070BD0000014000040040F5
:103C800000080040000C00400004014000400140DA
:103C90000018004010B5040003D094F83D0010B1A6
:103CA00007E0012010BD002084F83C00204600F011
:103CB0001FF8022084F83D00211D206802F01AFF41
:103CC000012084F8460084F83E0084F83F0084F820
:103CD000400084F8410084F8420084F8430084F8EE
:103CE000440084F8450084F83D00002010BD000029
:103CF00008B500680B49884212D10B48016841F0B1
:103D0000020101600068002200F0020000901146EC
:103D10001D20FEF7E5FEBDE808401D20FEF7D3BEDE
:103D200008BD0000000400404038024090F83D10FB
:103D3000012901D001207047022180F83D1001685F
:103D4000CA6842F00102CA6000681149884214D072
:103D5000B0F1804F11D00F4988420ED00E498842F1
:103D60000BD00E49884208D00D49884205D00D4934
:103D7000884202D00C49884204D1816801F00701D1
:103D8000062903D0016841F001010160002070475D
:103D9000000001400004004000080040000C00400A
:103DA00000040140004001400018004070B5044686
:103DB00090F83C000025012817D0012684F83C60CB
:103DC000022084F83D002068826822F0770222F405
:103DD0007F4282600868502838D00DDC20284FD000
:103DE00005DC90B3102811D14AE0022070BD3028C4
:103DF00046D040280AD13BE060282FD070280DD053
:103E0000B0F5805F03D0B0F5005F12D0012584F8D3
:103E10003D60002084F83C00284670BDCB68D1E9A5
:103E20000121206802F0CEFE2068816841F0770110
:103E300009E0CB68D1E90121206802F0C3FE2068C7
:103E4000816841F480418160E1E719E0CA6849680E
:103E5000206802F0C9FE5021206806E0CA6849685F
:103E6000206802F0D2FE6021206802F0B5FECEE7A5
:103E7000CA684968206802F0B7FE40212068F4E76C
:103E8000226801461046F0E770472DE9F0410446EC
:103E90000068C66805694FF00007A90713D5B10788
:103EA00011D5F91E01610120207720688069800703
:103EB000204602D0FFF7E8FF04E000F07EF820463D
:103EC00000F07CF82777680716D5700714D52168AD
:103ED0006FF004000861022020772068806910F4E8
:103EE000407F204602D0FFF7CFFF04E000F065F8E6
:103EF000204600F063F82777280715D5300713D53B
:103F000021686FF008000861042020772068C069EC
:103F10008007204602D0FFF7B7FF04E000F04DF81D
:103F2000204600F04BF82777E80616D5F00614D5A2
:103F300021686FF010000861082020772068C069B0
:103F400010F4407F204602D0FFF79EFF04E000F00F
:103F500034F8204600F032F82777E80708D0F00759
:103F600006D021686FF001000861204600F028F8B3
:103F7000280608D5300606D521686FF08000086154
:103F80002046FFF73CFE680608D5700606D5216876
:103F90006FF040000861204600F026F8A8060AD518
:103FA000B00608D521686FF0200008612046BDE802
:103FB000F041FFF725BEBDE8F08170477047000073
:103FC00070B504460068074DA84201D1FEF7E4FC35
:103FD0002068A84204D1BDE87040012024F076BBDF
:103FE00070BD000000200040704738B5044690F8CE
:103FF0004200202801D0022038BD51B14AB1012031
:10400000206300206063204603F02AFF216B012912
:1040100001D0012038BD21680A68496800912168F3
:104020000C3151E8002F42F0100241E80023002B30
:10403000F5D138BD10B50E4B02689A4207D10D4B31
:104040000D4A03F0A5FF40220B490C480BE00C4B36
:104050009A420CD1084A074B403203F099FF0649B7
:10406000402208484031BDE8104004F00FB810BDB0
:10407000001001407C150020FC120020EC100020F4
:10408000004400403411002070B5044620680C3014
:1040900050E8001F21F4907140E80012002AF5D189
:1040A0002068143050E8001F21F0010140E80012A0
:1040B000002AF5D1206B012809D120680C3050E886
:1040C000001F21F0100140E80012002AF5D12068FD
:1040D00040694FF00005400615D52068143050E8BF
:1040E000001F21F0400140E80012002AF5D1E06BEA
:1040F00048B10565E06BFDF72DFC20B1E06BFDF7E5
:10410000B5FC202806D0E585202084F842002563F0
:10411000002070BD10206064032070BD10B50446FF
:104120000068406994F84110C0F3C010212911D1F2
:1041300080B12068143050E8001F21F0800140E871
:104140000012002AF5D1A06B08B1FDF703FC204650
:1041500003F091FD2068406994F84210C0F380108C
:10416000222911D180B12068143050E8001F21F0BD
:10417000400140E80012002AF5D1E06B08B1FDF7DC
:10418000E9FB204603F050FD002010BD10B500688B
:104190000C49884206D1022003F09AFC40220A49C9
:1041A0000A4809E00A4988420AD1032003F090FC3A
:1041B0000549402207484031BDE8104003F066BF82
:1041C00010BD000000100140FC120020EC10002087
:1041D0000044004034110020F8B501680446086826
:1041E000CA684B6910F00F0F4FF0000559D003F06B
:1041F000010602F49077374365D0C10705D0D10599
:1042000003D5616C41F001016164410705D5D9070F
:1042100003D0616C41F002016164810705D5D907C3
:1042200003D0616C41F004016164010707D502F01D
:104230002001314303D0616C41F008016164616C7D
:1042400000293AD0800604D5900602D5204603F016
:1042500020FD20684069616CC0F38010090700D41C
:1042600060B3204603F0E0FC20684069400621D599
:104270002068143050E8001F21F0400140E800128F
:10428000002AF5D1E06BA8B172490165E06BFDF73A
:10429000AAFB002811D0E06B016D01B0BDE8F04031
:1042A000084783060FD593060DD52046BDE8F84094
:1042B00003F0EFBC2046FFF769FFF8BD2046FFF78B
:1042C00065FF6564F8BD266B2023012E7ED1C606EE
:1042D0007CD5D6067AD508684868009048694FF0C2
:1042E000020640064DD5E26B106840684FF48077B7
:1042F0000004000C3AD0A18D814237D9E085D06905
:10430000B8422DD020680C3050E8001F21F4807195
:1043100040E80012002AF5D12068143050E8001F50
:1043200021F0010140E80012002AF5D12068143084
:1043300050E8001F21F0400140E80012002AF5D1AA
:1043400084F84230256320680C3050E8001F21F0CB
:10435000100140E80012002AF5D1E06BFDF7FAFAEF
:104360006663A08DE18D401A81B206E0A18D814285
:10437000A8D1D069B842A5D166632046FFF75AFE9E
:10438000F8BDA08DE18D401A81B2E08D0028F7D0F4
:104390000029F5D020680C3050E8002F22F49072EC
:1043A00040E80027002FF5D12068143050E8002F96
:1043B00022F0010240E80027002FF5D184F84230B6
:1043C000256320680C3050E8002F00E006E022F062
:1043D000100240E80023002BF3D1CDE705062BD5D2
:1043E000150629D594F841002128C9D1A068B0F557
:1043F000805F01D12069B0B1206A411C216221682F
:1044000000784860E08C401E0004000CE084B7D1C6
:104410002068C16821F08001C1602068C16841F056
:104420004001C160F8BD206A0088C0F30800486000
:10443000206A801C2062E5E74006F3D55006F1D5DE
:10444000CA68204622F04002CA6084F8413000F079
:1044500073F9F8BDE17A000870B5040004D094F84F
:104460004100002510B106E0012070BD84F84050E5
:10447000204600F023F8242084F841002068C16819
:1044800021F40051C160204603F064FC20680169FA
:1044900021F4904101612068416921F02A014161C4
:1044A0002068C16841F40051C1606564202084F82F
:1044B000410084F842006563002070BD2DE9F0479B
:1044C00086B0044614216846FBF7D3FEDFF868C1C6
:1044D00002212668594803220723DFF8648100255A
:1044E0008F064FF0400A4FF4806966454DD1534E18
:1044F0001436D6F800C04CF0100CC6F800C0366870
:1045000006F010060596066846F00106066000688B
:1045100000F00100059050028DE8230069464046F6
:10452000CDE90323FDF7E0FC474E4648C84630601E
:10453000C6E90175C6E903597561B561F561356272
:1045400030467562FDF768FB08B1FCF793FBE66344
:10455000B4633D4E3B4860367830C6E90358756118
:10456000B561F5613562756286E881043046FDF714
:1045700053FB08B1FCF77EFBA66300221146252001
:10458000B463FEF7ADFA252051E0DFF8C0C0664500
:104590004FD12A4E1036D6F800C04CF4003CC6F875
:1045A00000C0366806F400360596066846F0010637
:1045B0000660006800F0010005900C208DE82300E3
:1045C00069464046CDE90323FDF78EFC1E4E204888
:1045D000C036B8463060C6E90175C6E90359756151
:1045E000B561F56135624F4630467562FDF714FBE3
:1045F00008B1FCF73FFBE663B463164E1448C6E906
:1046000003577561B561F56135621830756286E8EA
:1046100001053046FDF700FB08B1FCF72BFBA66354
:10462000002211462620B463FEF75AFA2620FEF730
:104630004AFA06B0BDE8F087001001403038024069
:1046400000000240406402407C1100200044004011
:10465000886002409C12002010B50F4A0168914208
:1046600008D10E4B0E4A402103F092FC40220C4927
:104670000C480CE00C4A91420DD1094A074B4032DC
:10468000402103F085FC0649402208484031BDE83E
:10469000104003F0FBBC10BD001001407C15002051
:1046A000FC120020EC1000200044004034110020D7
:1046B0007047000070B5044690F84100202801D0F2
:1046C000022070BD01B3FAB12162A284E28400200D
:1046D0006064212384F84130A56B144BEB63A56B18
:1046E000134B2B64A56B134BEB64A36B186520680D
:1046F0001346A56B021D2846FDF7F8FA30B11020CD
:104700006064202084F84100012070BD21686FF0B2
:10471000400008602068143050E8001F41F080011C
:1047200040E80012002AF5D1002070BDDD7B0008B2
:104730001F7C0008EF7A000800680649884201D112
:10474000022003E00449884202D1032003F0C0B9EB
:104750007047000000100140004400407047FEE731
:104760000148FDF7E4BC0000FC0F00200148FDF704
:104770003BBD0000FC0F00200148FDF7D8BC000045
:10478000501000200148FDF72FBD00005010002000
:1047900038B5806B002190F83D202B4B46F2A814D1
:1047A0001B68B3FBF4F3C3EBC30303EB8303009376
:1047B0003BB15B1E009303681B689B0505D5009BFE
:1047C000F6E7036C43F020030364436B03B1D96342
:1047D000836B03B1D96303681C6824F480641C6094
:1047E0004185436B03B11965836B03B11965036898
:1047F0001C6824F001041C6090F83D402023602CCC
:104800000BD0282434EA02020FD080F83D3080F823
:104810003E1000BFFDF700FE38BD80F83D3080F847
:104820003E100164FDF768FC38BD0268136843F070
:10483000010313600268136843F48063136001632B
:1048400080F83D40E6E70000040000200068416970
:10485000C943090601D400210161704770B50446BF
:1048600090F83D0094F83E10102901D0402906D15F
:10487000222804D121680A6822F400620A602821F3
:1048800031EA00024FF000054FF0200626D02168E3
:104890004968090505D4602803D084F83D6084F890
:1048A0003E50256320684168090537D5416821F4E9
:1048B00000614160606B90F835203C49012A11D0BD
:1048C0000165606BFDF78FF838B32068016821F04F
:1048D0000101016084F83D60606B1CE0256384F891
:1048E0003D10DFE7A06B0165A06BFDF77CF8A0B180
:1048F00020684169C943490605D40069616A0870A6
:10490000606A401C60622068016821F0010101605A
:1049100084F83D60A06B016D884710E094F83D106D
:10492000602910D04169C943490605D40069616A0C
:104930000870606A401C60622046FDF76DFD206CC7
:10494000C1071CD115E084F83D6025644169C94365
:10495000490605D40069616A0870606A401C60629B
:104960002068016821F0010101602046FDF7C4FBC9
:10497000E5E7810703D4410701D4000704D5206887
:10498000416821F4E061416094F83D00216C4907E1
:104990000BD5282809D10648E062256384F83D60DC
:1049A00084F83E502046FDF7FDFD70BD914700089C
:1049B0000000FFFF01684A69D24352050FD46FF42B
:1049C00080624A61002140F8301F202242738173C7
:1049D000026942F004020261017301207047002065
:1049E000704710B5C26A438D0168042B06D0438D11
:1049F000032B08D0438D022B1DD012E04A6822F40D
:104A000080624A600CE04B6823F480634B60042AA8
:104A100006D0022A04D001680A6822F480620A6083
:104A200001680969426A1170416A491C4162418DFD
:104A3000491E418510BD012A34D0102A32D0042AE3
:104A400034D0022A32D00B6843F400730B60016843
:104A50000969436A1970416A491C4162438D5B1EB2
:104A6000438503681B690B70416A491C4162418D93
:104A7000491E418501684B6823F440734B60202137
:104A800080F83D1090F83E300021402B80F83E1019
:104A900010D0082A02D0202A00D012210163FDF78D
:104AA000BDFD10BD0B6823F48063CFE70B6843F4B2
:104AB0008063CBE70163FDF749FE10BD38B590F880
:104AC0003D10222910D1C36A418D03290DD90168F7
:104AD0000969426A1170416A491C4162418D491E4F
:104AE0004185418D032906D038BDC26A022A02D011
:104AF000012906D029B10068416821F48061416034
:104B000038BD2A4A46F2A81400211268B2FBF4F21A
:104B100002EB8202009202682024009D6D1E009527
:104B200026D01568AD05F8D4156825F480651560A4
:104B30000268556825F4E065556002681269456AA7
:104B40002A70426A521C4262428D521E428580F88F
:104B50003D4090F83E2080F83E10402A21D0082B9E
:104B600002D0202B00D012210163FDF757FD38BD84
:104B7000036C43F020030364536823F4E063536041
:104B800002681269436A1A70426A521C4262428D7C
:104B9000521E428580F83D4080F83E10FDF73CFCF7
:104BA00038BD0163FDF7D2FD38BD000004000020D0
:104BB000F8B50446C06A1E460D461746082807D0B9
:104BC000012805D010F5803F02D0206B122804D1B7
:104BD0002068016841F480710160134600224FF0A3
:104BE00001112046009600F03BFB40B120680068B0
:104BF000C00502D54FF4007020640320F8BD206981
:104C0000B0F5804F0ED00620216800EAD51040F0A4
:104C1000F000086133463A460B49204600F068FB35
:104C200078B902E005F0FE0000E0E8B22168086112
:104C3000054933463A46891F204600F059FB0028B3
:104C4000DCD00120F8BD00000800010010B5C26AE8
:104C500090F83D1021290BD1418D51B1416A026874
:104C600009781161416A491C4162418D491E4185A3
:104C700010BD20230021082A13D0202A11D012F5BC
:104C8000803F0ED00268546824F4E064546011221E
:104C9000026380F83E1080F83D3000BFFDF7BFFC96
:104CA00010BD0268546824F4E0645460026814681B
:104CB00044F400741460016380F83D3090F83E20A5
:104CC00080F83E10402AE9D1FDF741FD10BD0000FB
:104CD00010B590F83D1090F83E30C26A048DB4B122
:104CE000212903D0402B11D122290FD1418DE1B3CD
:104CF00090F83E10402942D0416A0268097811615B
:104D0000416A491C4162418D491E418510BD2129DE
:104D1000E8D120230021082A13D0202A11D012F52F
:104D2000803F0ED00268546824F4E064546011227D
:104D3000026380F83E1080F83D3000BFFDF76FFC45
:104D400010BD0268546824F4E0645460026814687A
:104D500044F400741460016380F83D3090F83E2004
:104D600080F83E10402AE9D100E002E0FDF7EFFCB8
:104D700010BD0068416821F48061416010BDBDE84C
:104D8000104000F0D3B8000078B590F83E50C26AE9
:104D9000036B90F83D6000240168222E7AD1066DE5
:104DA0000EB9402D76D0056D1DB90569B5F5404F9A
:104DB00009D0458D05B3468D384D012E0ED0438D5B
:104DC000022B3AD05DE04A698A6900920A6842F48F
:104DD00080720A60016D491C016578BDAA4213D139
:104DE0000A6822F480620A6001684A68120503D5E5
:104DF0000A6822F4806216E04A698A6900920A68A9
:104E000042F400720A6039E0082A10D0202A0ED03D
:104E1000122B0AD0042A03D0022A01D0102AE7D18B
:104E20000A6842F480620A6024E0012AE0D00A683D
:104E300022F480620A600168DEE7042A21D0022A97
:104E40001FD0102A1DD00B6823F480630B6001680B
:104E50000B6843F400630B6001684B681B0509D5C0
:104E6000AA4212D0012A10D0082A0ED0102A0CD043
:104E7000202A0AD001684A6989690091046578BDD1
:104E800008E00B6843F48063E5E74A6842F4805227
:104E90004A60EFE7486988690090F0E70000FFFF8B
:104EA00090F83E10402910D00169B1F5804F19D01B
:104EB000016DA9B3016D012910D1416C5FF0F102C0
:104EC00001F4407142EAD11106E0016D0029416C04
:104ED00005D0C9B241F0010100680161704701F0DD
:104EE000FE01F9E790F83D102129416C09D0C9B2C3
:104EF00041F0010102681161416B29B1C96B49B9E7
:104F000002E001F0FE01F5E7816B0029E6D0C96BF4
:104F10000029E3D00068416841F4006141607047B6
:104F2000FFE7416CF02201F44071CBE710B590F837
:104F30003D10026D4AB1026D012A14D0026D022AA1
:104F400016D0BDE81040FFF781BCC16C0129816C0F
:104F500002D0C1F3072108E00268C9B21161016DF6
:104F6000891C016510BD816CC9B20268116123E022
:104F700022291CD0428D0AB1212920D0428D002A3D
:104F8000F0D12129EED101684A6822F4E0624A603A
:104F900001680A6842F400720A600021016320225D
:104FA00080F83D2080F83E10FDF7D1FB10BD016870
:104FB0000A6842F480720A60016D491CD1E7416AB7
:104FC000026809781161416A491C4162418D491E9C
:104FD000418510BD38B50C4690F83D2000212825AC
:104FE000954302680B4605D051699169009180F89C
:104FF0003C3038BD556825F480655560E243540760
:1050000000D50121120601D5828900E0028B80F8CB
:105010003C3092B2FDF771F838BD00002DE9F04147
:1050200090F83D300446C26A002120261E4F0068D9
:105030006FF48065082A01D0202A01D1282B04D0E2
:10504000212B17D04561BDE8F081E762426822F468
:10505000E0624260206845612068026822F4806254
:105060000260216384F83D6084F83E102046FDF71D
:1050700099FAE8E7E7622122226384F83D6084F828
:105080003E10416821F4E06141602068456120687C
:10509000016821F4806101602046FFF7D7FB2046BC
:1050A000FDF73AFCCFE700000000FFFFF8B590F8ED
:1050B0003D6004460068416821F4E0614160206879
:1050C000002541690091016841F0010101602068FB
:1050D000016821F48061016020684168090520D5DC
:1050E000474F222E48D02A2E46D0616B0968496866
:1050F0006185618D19B1216C41F004012164416821
:1051000021F400614160606BFCF7B2FC012808D01B
:10511000606B0765606BFCF766FC10B1606B016D3E
:105120008847608D08B320684169C943490708D49E
:105130000069616A0870606A401C6062608D401E90
:10514000608520684169C943490608D40069616ADD
:105150000870606A401C6062608D401E6085608DD2
:1051600018B1206C40F004002064206C00B320468D
:10517000BDE8F840FFF772BBA16B0968496861851B
:10518000618D19B1216C41F004012164416821F461
:1051900000614160A06BFCF76BFC0128C1D0A06BE3
:1051A0000765A06BFCF71FFC0028BAD0A06BB6E720
:1051B0002A2E06D12563282084F83D002046FDF7DD
:1051C00071FB94F83D10202028290DD0216B222955
:1051D00001D0222E07D1256384F83D0084F83E508B
:1051E0002046FDF75FFBF8BD0649E162256384F8C0
:1051F0003D0084F83E502046FDF7D4F9F8BD00008C
:10520000914700080000FFFF70B516460D460446A2
:105210001EE02046FFF7CEFB08B1012070BD681CE0
:1052200016D0FCF763FF801BA84200D885B9206820
:105230004069C04340070BD5002044F8300F2021BF
:105240006173A073216941F0200121612073E4E7BB
:1052500020684069C0434007DBD4002070BD0000D7
:105260002DE9F047984617460D460446C1F3074618
:10527000DDF820902AE000BFB8F1FF3F26D0FCF710
:1052800035FFA0EB0901414502D8B8F1000F1DD14F
:105290002068012E16D0806925EA00000004000C69
:1052A00012D00020B84211D1002044F8300F202144
:1052B0006173A073216941F02001216120730120F5
:1052C000BDE8F0874069E7E70120EBE72068012EA1
:1052D0000AD0806925EA00000004000C06D00020F6
:1052E000B842C9D00020EBE74069F3E70120F7E7B7
:1052F0002DE9F047984616460D4604464FF0000942
:105300004FF0200AC1F3074723E020684069C043FB
:10531000400515D42068016841F4007101602168DE
:105320006FF480604861C4F8309084F83DA084F840
:105330003E90216C41F00401216484F83C9021E00E
:10534000701C06D0FCF7D2FEA0EB0800B04203D8D8
:1053500016B1012F1FD021E02068012F15D08069E0
:1053600025EA00000004000C18D000BF44F8309F6C
:1053700084F80DA084F80E90216941F0200121618C
:1053800084F80C900120BDE8F087406925EA000010
:105390000004000CEAD12068406901E020688069BF
:1053A00025EA00000004000CAFD1ECE770B516460A
:1053B0000D4604461EE02046FFF7FCFA08B1012026
:1053C00070BD681C16D0FCF791FE801BA84200D867
:1053D00085B920684069C04300060BD5002044F819
:1053E000300F20216173A073216941F020012161F8
:1053F0002073E4E720684069C0430006DBD4002046
:1054000070BD10B50446FCF779FE2046FDF706F89E
:105410002046BDE8104000F001B8000010B500685B
:105420000949884204D11F20FDF73CFB202006E0FB
:105430000649884207D12120FDF734FB2220BDE830
:105440001040FDF72FBB10BD005400400058004035
:10545000F0B51E4A0168C1B0914202D104261C4F2A
:1054600004E01C4A91422FD11B4F0526418DC1F506
:1054700080718CB2418D4FF4807519B1AC4207D95F
:105480002C4606E0808CC01B0004000C16D0F7E709
:10549000A4B14FF482716846FAF7EBFE8DF8006014
:1054A000AC4200D92C46ADF802402246394601A84C
:1054B000FAF7B7FE6946094800F0FDFE41B03046F4
:1054C000BDE8F04000F042B841B0F0BD00540040EB
:1054D0003EC70120005800403EC8012080560020F1
:1054E000002918D0042814D0052814D10A480A68C5
:1054F00042604A6882608A68C260CA6802610A695A
:1055000042614A6982618A69C261C9690162FFF7C1
:1055100078BF0248EBE7704750100020FC0F0020D6
:1055200010B504280AD005280AD1064C2046FFF7FA
:1055300068FF2046BDE81040FFF770BF024CF5E75A
:1055400010BD000050100020FC0F002070B5042892
:105550000FD0052821D1114C114D2046FFF751FFE6
:1055600010492068884207D11F20FDF7ACFA20209F
:1055700009E00D4C0D4DF0E70D49884205D1212081
:10558000FDF7A1FA2220FDF79EFA29462046BDE844
:1055900070404FF48072FDF7C1B970BD501000200B
:1055A0003EC8012000540040FC0F00203EC70120EF
:1055B00000580040704700002DE9F8431F465FEA9D
:1055C000020804D01FB1042804D0052804D001200B
:1055D000BDE8F8830C4D00E00C4D4FF6FF7000EA7B
:1055E000410164260C4628460096FDF719F802286A
:1055F000EED12846FFF705FF21463B4642462846A6
:105600000096FDF70DF8E3E7FC0F00205010002096
:105610002DE9F041164E0546002134887088444338
:10562000084600F06DFA00F0E3FB3188284600F0F0
:1056300025F8104F002220213846FCF752FD0122A8
:1056400010213846FCF74DFD08E03588A54200D30F
:1056500025466900084800F023F8641B002CF4D1AB
:105660003846BDE8F04101222021FCF73ABD000098
:1056700030C7012000100240B0C4012030B5040A38
:10568000C3B20020054A06E002F8104002EB4005D4
:10569000401C6B7080B28842F6D330BDB0C401208C
:1056A00010B5064C012222708AB201460448FEF76A
:1056B00009FA20780028FCD110BD00000800002065
:1056C00080C10120044B9A6001225A708AB20146BF
:1056D0000248FEF7F7B900000800002080C1012051
:1056E0002DE9F041F0212C232A252E4C4FF4A072F5
:1056F0002B2630B1012804D0022815D0032813D05E
:1057000022E00027A7712180628023816581002823
:10571000A6814FF0360003D000F02AFBC02011E034
:1057200000F026FB00200DE00127A7712280618098
:10573000238165810228A6814FF036002ED000F02B
:1057400017FB602000F0F6FA608900F011FB0020E2
:1057500000F0F0FA002000F0EDFA2088401EC0F3BF
:105760000F2000F0E7FA2078401EC0B200F0E2FA05
:10577000A08900F0FDFA002000F0DCFA002000F023
:10578000D9FA6088401EC0F30F2000F0D3FAA07849
:10579000BDE8F041401EC0B200F0CCBA00F0E8FA1B
:1057A000A020CFE730C701202DE9FE4F161ACDE922
:1057B00000104FF000085D1A47464FF0FF30002EF2
:1057C00002DD4FF0010102E003D14FF000018B46F2
:1057D00002E08346C6F10006002D02DD4FF0010015
:1057E00002E003D14FF00000824602E08246C5F19C
:1057F0000005AE4201DD344600E02C46601C4FF04F
:105800000009029018E0009881B2019880B200F07F
:1058100019F8B0442F44A04504DD0198A8EB040812
:1058200058440190A74203DD00983F1B504400906C
:1058300009F101001FFA80F902998945E3DDBDE80D
:10584000FE8F000010B500F05BF900F0D1FA0348BC
:105850004088BDE8104000F0A9BA00000800002010
:105860002DE9FC5F80460025144603200F46A0EB7F
:10587000440649E0381B81B208EB050A01901FFA83
:105880008AF0FFF7DFFF781B81B208EB0409009074
:105890001FFA89F0FFF7D6FF07EB050B1FFA8BF114
:1058A0001FFA89F0FFF7CEFF07EB04091FFA89F111
:1058B0001FFA8AF0FFF7C6FFA8EB050A1FFA89F165
:1058C0001FFA8AF0FFF7BEFFA8EB04091FFA8BF15D
:1058D0001FFA89F0FFF7B6FF019881B21FFA8AF02C
:1058E000FFF7B0FF009881B21FFA89F0FFF7AAFF17
:1058F0006D1C002E03DA06EB8506B61D04E0281B9E
:1059000006EB8006641E0A36A542B3DDBDE8FC9FA7
:1059100010B5144600F0F4F8034821460089BDE8AC
:10592000104000F06BBA000030C7012010B56F4C7A
:10593000012208212046FCF7D4FB0A20FCF70EFACE
:10594000002208212046FCF7CCFB1420FCF706FAC5
:10595000012208212046FCF7C4FB9620FCF7FEF943
:10596000012000F005FA9620FCF7F8F9112000F06C
:10597000FFF97820FCF7F2F9362000F0F9F9002061
:1059800000F0D8F93A2000F0F3F9552000F0D2F9F0
:10599000B22000F0EDF90C2000F0CCF90C2000F062
:1059A000C9F9002000F0C6F9332000F0C3F9332014
:1059B00000F0C0F9B72000F0DBF9752000F0BAF96B
:1059C000BB2000F0D5F9152000F0B4F9C02000F09C
:1059D000CFF92C2000F0AEF9C22000F0C9F9012067
:1059E00000F0A8F9C32000F0C3F9132000F0A2F9D9
:1059F000C42000F0BDF9232000F09CF9C62000F07F
:105A0000B7F90F2000F096F9D02000F0B1F9A420EA
:105A100000F090F9A12000F08DF9D62000F0A8F94F
:105A2000A12000F087F9212000F0A2F9E02000F089
:105A30009FF9D02000F07EF9082000F07BF91020BB
:105A400000F078F90D2000F075F90C2000F072F9E3
:105A5000072000F06FF9372000F06CF9532000F0B8
:105A600069F94C2000F066F9392000F063F915203F
:105A700000F060F9152000F05DF92A2000F05AF9D5
:105A80002D2000F057F9E12000F072F9D02000F04D
:105A900051F90D2000F04EF9122000F04BF90820CA
:105AA00000F048F9082000F045F9152000F042F90F
:105AB000342000F03FF9342000F03CF94A2000F097
:105AC00039F9362000F036F9122000F033F91320AE
:105AD00000F030F92B2000F02DF92F2000F02AF9EA
