:10000000027098B2E200000000000000000800004A
:10001000100C200018063FF0180330301803303061
:100020001800303318003233980033B318303333AC
:100030001818B333181CB333180CB33318093333FF
:1000400018013333180132331801323318023233B6
:100050001802323318063233187E3623181C260352
:10006000180C0503180C0C80180C0840180C18709C
:10007000180C3030180C6031F00080107001000056
:100080002000000000CAD4000000000000000000B2
:10009000000400000007C00C0006700600063003D4
:1000A0000006100300061803000608003FFFFC00CE
:1000B0000006000000060000000600010006007FA8
:1000C000801600031FFA000301820003018300036E
:1000D0000183000301830003018100030181800388
:1000E00009818003118CC40321F0C40343C064035D
:1000F000DE00740388003C0380001C0100000C003B
:1001000000000400000000B3CC000000000000006C
:1001100000001000000079001003E1FFF83D81802D
:100120003001818030018180300181803001818007
:1001300030018980307FFDFFF001818030018180B6
:10014000000380001803E3FFFC03B80400079804D1
:100150000007880400058804000D8004000980045D
:10016000101181FFF81180040021800400418004F7
:10017000000180040001800408018FFFFC01800061
:10018000000100000000000000CFD40000000000CB
:10019000000000000000000100010000FFFF8000DF
:1001A000800180008001800080018000800180004B
:1001B000FFFF8000800180008001800080018000BE
:1001C00080018000FFFF80008001800100000000AE
:1001D0000C3000000C3020080C3070060C3060072A
:1001E0000C30C0038C3180018C3300018C32000054
:1001F0008C3400000C3800000C30303FFFFFF8005A
:100200000000000000000000000000CABE00000066
:10021000000000000000000000000000800000005E
:10022000C003FFFFE000000000000000000000002D
:1002300000000000000000000000000000000000BE
:10024000183FFFFFFC0001800000018000000180DA
:10025000000061880000F1840000C1830001C181B9
:1002600080018180C0030180E0060180700C018064
:1002700038080180181001801020618000001F8064
:1002800000000700000002000000000000C6C100DE
:10029000000000000000000000000000000020033B
:1002A000FFFFF003000030030000300300003003C4
:1002B000FFFFF00200003002040200020607000205
:1002C0000306000203040002010860027FFFF0063B
:1002D00002060006020600060206000602060006E6
:1002E00002063005FFFFF8040206000C02060008B3
:1002F00006060008060600100C060010080600207E
:10030000300600206006000180040000000000D0DC
:10031000F20000000000000000000100000000C02A
:1003200000000060000400603007FFFFF8060000D6
:100330000006000040063FFFC0060001E006000383
:1003400000060104000600D80006006000060070E8
:10035000000600301007FFFFF806003038040030B8
:1003600020040030400C0030400C00300008003009
:10037000000800300008003000100030001000209D
:10038000002007E0002000E00040004000000000E6
:1003900000D6D0000000001000001800001000007F
:1003A00010000010001FFFF818101818101818106F
:1003B000181810181810181810181FFFF81810180F
:1003C00010101000100000100000100000100000BD
:1003D0001800001800001000000000CEC40000004B
:1003E0000000000020000010000018000008083F76
:1003F000FFFC010180010180008100008100008379
:1004000000004200004600002400002C00001800FC
:1004100000180000660000C3800301F00C007C306F
:100420000008000000B2E200000000000010000818
:1004300009FE080D860801860801B66841B64833F2
:10044000B64813B64813B64805B64805B64805B6CB
:100450004809A64809A64839A44819600818580848
:1004600018C4081886081B0238040018000000CAC7
:10047000D40000000000000001001001F008009806
:100480000C008804008404FFFE0000800000807ED1
:10049000028004FF800408800408C00408400408A7
:1004A00040044860048922050E320670120E401C7A
:1004B00004000E000002000000CFD4000000000085
:1004C0000003FFC002006002004002004003FFC0C2
:1004D00002004002004002004003FFC002804000D2
:1004E00062000042181042100C42200642400642B0
:1004F000800243000042083FFFFC000000000000B3
:10050000000000CABE0000000000000000200FFF35
:10051000F0000000000000000000000000000004E7
:100520007FFFFC0018000018000119000318800369
:1005300018400618200C183008181810180C20182D
:100540000841F800007000002000000000000000DA
:10055000000000000000000000000000000000009B
:10056000000000000000000000000000000000008B
:10057000000000000000000000000000000000007B
:100580000F80380FFE380F80380000000000000098
:100590000000000000000000000000010000060054
:1005A000000C00003800003100000600000C0000C4
:1005B00038000030000000000000000000618000F2
:1005C00067F807F980006180006180006180006148
:1005D000800067F807F980006180000000000000DB
:1005E00000000001C0E003E0F00630080418081F16
:1005F000FFFE040E080787F00381E0000000000002
:100600000001F000060C00040408060C7001F9C09B
:10061000000E00003BE000EC18070808040C18006E
:1006200003E00000000001E00007F003F818041CDC
:100630000804170807E1D003C0E00023B0003C081D
:100640000020080000100000000000000100003140
:1006500000003200001C000000000000000000004C
:10066000000000000000000000000000000000008A
:10067000000000000000000000000000007F0001FA
:10068000FFC00780F00C00181000042000020000DA
:10069000000000002000021000040C00180780F089
:1006A00001FFC0007F00000000000000000000000B
:1006B000000000000000000000420000660000662C
:1006C00000003C0000180003FFC0001800003C00C0
:1006D0000066000066000042000000000008000004
:1006E000080000080000080000080001FFC0000822
:1006F00000000800000800000800000800000000DA
:1007000000000100003100003200001C0000000069
:1007100000000000000000000000000000000000D9
:1007200000000000000800000800000800000800A9
:100730000008000008000008000008000008000091
:100740000800000000000000000000000038000069
:100750003800003800000000000000000000000029
:100760000000000000000000000000000000060083
:10077000001C000070000180000E0000380000C066
:10078000000700001C000030000000000000000016
:10079000007F8001FFE00380700600180400080459
:1007A000000806001803807001FFE0007F80000051
:1007B000000000000000000100080100080100081E
:1007C00003FFF807FFF80000080000080000080019
:1007D000000000000000000001C03802C058040002
:1007E00098040118040218040418061C1803F818C9
:1007F00001E0F800000000000000000001C0E0037C
:10080000C0F004000804080804080806180803F4E7
:100810001801E7F00001E000000000000000000007
:10082000000300000D0000110000610000810803BA
:10083000010807FFF80FFFF8000108000108000099
:10084000000000000000E007FCD0060808061008C1
:10085000061008061008061838060FF00607C00034
:100860000000000000000000003F8001FFE0038462
:1008700030020818041008041008041008071810A3
:10088000030FF00007C0000000000000000000039C
:10089000C0000700000600000600F80607F806186A
:1008A0000006E00007000006000000000000000055
:1008B00001E1E003F7F006341004180804180804F6
:1008C0000C08040C0806161803F3F001C1E0000040
:1008D0000000000000F80003FC30030638040208A2
:1008E0000402080402080404100308F001FFC00019
:1008F0007F00000000000000000000000000000079
:1009000000000000007038007038007038000000EF
:1009100000000000000000000000000000000000D7
:10092000000000000000000000301A00301C000031
:1009300000000000000000000000000000000000B7
:100940000000000008000014000022000041000028
:100950008080010040020020040010080008000010
:100960000000000000210000210000210000210003
:1009700000210000210000210000210000210000D2
:100980002100000000000000000000080008040032
:100990001002002001004000808000410000220081
:1009A00000140000080000000000000003C0000464
:1009B000C000040000080038080F38080838081084
:1009C000000C300007E00003C00000000000000041
:1009D000003F8000FFE0038070020F100670880463
:1009E000C088048308047F8802C09003012000FEB1
:1009F000400000080000180001F8003E0801C20095
:100A000007020007E20000FE00001FC80001F80016
:100A1000003800000804000807FFF807FFF8040882
:100A20000804080804080804080806180803F4184D
:100A300001E7F00001E0000000000000003F80013D
:100A4000FFE003807002001804000804000804009E
:100A5000080400100600200780C000000004000801
:100A600007FFF807FFF80400080400080400080462
:100A7000001802001003807001FFE0007F8000007A
:100A80000004000807FFF807FFF804080804080836
:100A9000040808040808043E0804000806001801B9
:100AA000006000000004000807FFF807FFF80408D2
:100AB00008040800040800040800043E00060000C2
:100AC000060000018000000000000000003F8001DF
:100AD000FFE0038070060018040008040208040206
:100AE000080203F00783F00002000002000400087F
:100AF00007FFF807FFF804080800080000080000D6
:100B0000080000080004080807FFF807FFF80400C1
:100B100008000000000000040008040008040008A9
:100B200007FFF807FFF804000804000804000800A5
:100B300000000000000000000000060000070000A8
:100B40000104000104000104000307FFFE07FFFC8D
:100B500004000004000004000004000807FFF80778
:100B6000FFF8040C08001800003E0004C7800503CD
:100B7000C80600F804003804001800000804000843
:100B800007FFF807FFF8040008000008000008004D
:100B900000080000080000080000180000600000C5
:100BA0000004000807FFF807800807FC00007FC06A
:100BB0000003F80007C000780007800807FFF80767
:100BC000FFF804000804000807FFF807000803C046
:100BD0000000E000003800001E000007000001C017
:100BE0000400F007FFF8040000000000007F80010F
:100BF000FFE00380700600180400080400080600E7
:100C00001803003001FFE0007F80000000040008AE
:100C100007FFF807FFF804040804040004040004B4
:100C20000400040400060C0003F80001F0000000BA
:100C300000000000007F8001FFE003807006008854
:100C40000400880400C806003C03003E01FFE600E3
:100C50007F8400000004000807FFF807FFF804087D
:100C600008040800040C00040F00040BC00610F078
:100C700003F03801E00800000800000001E0F8037C
:100C8000F030063010041808041808040C08040C8E
:100C9000080206180207F00781E00000000180004A
:100CA00006000004000004000004000807FFF80725
:100CB000FFF80400080400000400000600000180A2
:100CC0000004000007FFE007FFF004001800000820
:100CD00000000800000800000800000804001007D9
:100CE000FFE004000004000006000007E00007FE2B
:100CF00000041FE00001F80000380001E0043E009D
:100D000007C00006000004000004000007E0000720
:100D1000FFC0041FF80007C007F80007FF80043F6A
:100D2000F80007C004F800070000040000000000FD
:100D300004000806001807C07805F1C8003E00004E
:100D40001F800463E80780F806001804000800000C
:100D50000004000006000007800007E008047C088B
:100D6000001FF80007F800180804E0080700000654
:100D70000000040000000000010008060038040024
:100D8000F80403E8040F08047C0805F00807C0080D
:100D900007001804006000000000000000000000D0
:100DA00000000000000000003FFFFE2000022000C5
:100DB00002200002200002200002000000000000CB
:100DC00000000008000007000000C000003800001C
:100DD00006000001C000003000000E00000100000D
:100DE000000000000000002000022000022000029D
:100DF0002000022000023FFFFE0000000000000073
:100E000000000000000000000000000000000800DA
:100E10000010000030000020000030000010000032
:100E200008000000000000000000000100000100B8
:100E300000010000010000010000010000010000AD
:100E4000010000010000010000010000010000009D
:100E50000000000000002000002000001000001032
:100E60000000000000000000000000000000000082
:100E7000000000000000F00019F8001B1800220814
:100E8000002608002408002410003FF8001FF80086
:100E9000000800001800000004000007FFF80FFF22
:100EA000F000181800100800200800200800301872
:100EB000001FF0000FC00000000000000007C0008D
:100EC0001FF0001830002008002008002008003C17
:100ED00008001C100000600000000000000000007E
:100EE0000007C0001FF0003818002008002008008C
:100EF000200804101007FFF80FFFF000001000009A
:100F0000000000000000000007C0001FF0001230C9
:100F1000002218002208002208003208001E1000DB
:100F20000E2000000000000000200000200800202B
:100F30000801FFF803FFF806200804200804200831
:100F400007200003000000000000000000000E0069
:100F50000E6E001FF30031B10020B10020B100314E
:100F600091001F13002E1E00200E00300000000014
:100F700004000807FFF80FFFF80010080020000029
:100F80002000002008003FF8001FF80000080000C3
:100F900000000000000000002008002008002008D9
:100FA000063FF8063FF800000800000800000800AF
:100FB000000000000000000000000000000300002E
:100FC00003002001002001002003063FFE063FFC35
:100FD00000000000000000000000000004000807FE
:100FE000FFF80FFFF8000188000300002FC0003851
:100FF000F800203800200800000800000000000071
:1010000000000004000804000804000807FFF80FAF
:10101000FFF80000080000080000080000000000C1
:1010200000002008003FF8003FF8001008002000F2
:10103000003FF8003FF8001008002000003FF800D3
:101040003FF8000008000000002008003FF8003FC3
:10105000F8001008001000002000002008003FF8F1
:10106000001FF80000080000000000000007C0009A
:101070000FF0001830003008002008002008003071
:1010800008001830000FF00007C00000000000004A
:10109000002001003FFF003FFF0010110020090069
:1010A0002008002008003038001FF0000FC00000AA
:1010B000000000000007C0001FF0003818002008E2
:1010C000002008002009001011001FFF003FFF0052
:1010D0000001000000002008002008002008003F58
:1010E000F8003FF800080800100800200800200061
:1010F0000030000030000000000000000000000090
:101100000C78001E18003308002308002108002175
:10111000880021980030F0003860000000000000D6
:1011200000200000200000200000FFF003FFF80076
:101130002008002008002008000030000000000007
:1011400000000000002000003FF0007FF8000018C1
:10115000000008000008002010003FF8007FF000A9
:101160000010000000000000002000003000003CE3
:1011700000003F800023F000007800007000238012
:10118000003C00003000002000002000003C000077
:101190003FE00023F80000E0002700003E00003F91
:1011A000E00021F80001E0003E0000200000000007
:1011B000002008002008003838003E680027800022
:1011C00003C8002CF8003838002018002008000060
:1011D00000000000002000003003003C01003F83BD
:1011E0000023EC000070002380003C000020000081
:1011F000200000000000000000000000380800206F
:10120000380020F80023E8002F88003E0800380846
:101210000020180000700000000000000000000026
:1012200000000000000000000008000014001FF78C
:10123000FC3000062000020000000000000000005A
:10124000000000000000000000000000000000FF9F
:10125000FFFF000000000000000000000000000090
:10126000000000000000002000023000061FF7FC14
:101270000014000008000000000000000000000052
:1012800000000000000000001800006000004000A6
:1012900000400000200000100000080000040000D2
:1012A0000400000C0000100000000000000000001E
:1012B0000000000000000000003F400000000000AF
:1012C0000000003000400030004000000009000B2A
:1012D000C03D000BC03D00090018C024407FE02243
:1012E0004031800000180024C01B000D80324001F6
:1012F0008003801C4027401C800740004010006095
:101300000000000000000000000000000000001FBE
:1013100080204040200000402020401F800000002E
:1013200000090006001F80060009000000040004F8
:10133000003F800400040000000010006000000076
:101340000000000000040004000400040004000089
:10135000000000004000000000000000000020012C
:10136000C006003800400000001F802040204020C0
:10137000401F800000000010403FC00040000000FF
:101380000018C02140224024401840000010802056
:1013900040244024401B80000002000D0011003F4B
:1013A000C0014000003C80244024402440238000B1
:1013B000001F80244024403440038000003000207F
:1013C0000027C03800200000001B80244024402457
:1013D000401B8000001C0022C0224022401F8000D1
:1013E00000000000000840000000000000000000B5
:1013F000000460000000000000000004000A00116A
:10140000002080404009000900090009000900008F
:101410000000004040208011000A00040018002055
:101420000023402400180000001F8020402740298E
:10143000401F400000004007C039000F0001C000FD
:101440004020403FC0244024401B8000001F8020DB
:1014500040204020403080000020403FC0204020FD
:10146000401F80000020403FC024402E4030C0007C
:101470000020403FC024402E00300000000F00102C
:1014800080204022403380020020403FC0040004FE
:10149000003FC02040204020403FC020402040006E
:1014A000000060202020203FC02000200020403F7E
:1014B000C024400B0030C0204020403FC0204000EE
:1014C00040004000C03FC03C0003C03C003FC000A3
:1014D0000020403FC00C4023003FC020001F802060
:1014E00040204020401F80000020403FC024402476
:1014F00000180000001F802140214020E01FA000B4
:101500000020403FC02440260019C0004018C024DD
:10151000402440224031800000300020403FC02065
:10152000403000000020003F80004000403F80200D
:101530000020003E0001C0070038002000380007EE
:10154000C03C0007C038000000204039C006003908
:10155000C0204000002000384007C0384020000074
:1015600000304021C02640384020C000000000006C
:10157000007FE0402040200000000070000C0003CD
:1015800080004000000000402040207FE00000007C
:1015900000000020004000200000000000001000BB
:1015A00010001000100010001000000000400000AB
:1015B0000000000000000002800540054003C0005C
:1015C0004020003FC00440044003800000000003AE
:1015D00080044004400640000000000380044024D2
:1015E000403FC0004000000380054005400340002C
:1015F00000000004401FC0244024402000000002DE
:10160000E0055005500650042020403FC00440042F
:101610000003C000400000044027C000400000005C
:101620000000100010041027E00000000020403FE0
:10163000C00140070004C00440204020403FC000DB
:10164000400040000007C0040007C0040003C000C1
:1016500000044007C00440040003C0004000000331
:10166000800440044003800000041007F00450048C
:101670004003800000000003800440045007F00095
:1016800010044007C00240040004000000000006EF
:10169000400540054004C00000000004001F800415
:1016A0004000400000040007800040044007C000E4
:1016B000400400070004C001800600040006000189
:1016C000C0070001C006000000044006C00100067B
:1016D000C0044000000410071004E001800600046C
:1016E000000000044005C006400440000000000067
:1016F0000004007BE040200000000000000000FF2C
:10170000F000000000000040207BE004000000002A
:1017100000400080004000200020004000D7E8008A
:10172000007DF845084908490851F8490849084525
:101730000845F8450869085108410847FE4000B7C8
:10174000F100007FFC0080010003000560091831F2
:1017500004C10200001FF01010101010101FF01034
:1017600010D4F200047F044104412449244924494F
:1017700024492449244924492414241204210440DE
:10178000948088B5C820403F7E4890850801003F7E
:10179000F801000100FFFE000000207FFC0820048B
:1017A0002004A00040BBAD0000FFFE000000004F81
:1017B000E4492449244FE44924492449244FE4407E
:1017C0000440047FFC0004C3E60000FFFE020002A8
:1017D0000004003FF82448244827C8244824482708
:1017E000C8244824483FF82008C7D0100010001132
:1017F000FC104410441E44F044104410441244149D
:101800004418841084010402280410BBBB1080100B
:101810008010F81108FA1015FC112419243124D174
:101820002417FE10501050108851042602B2BB003D
:10183000007FFC00800080010001000340052009BA
:10184000101108210441048100010001000100D6AB
:10185000D8001000F83F000100FFFE01001FF0114A
:10186000101FF011101FF001003FF80100FFFE00F3
:1018700000D0C2100008047F78004022401440FFCE
:101880007E084808487F4808482A484948888828E8
:10189000881108C8E7100010001000107CFE4422D8
:1018A000442244224442442444144408441444221C
:1018B0007C42448000C9EE000027FC140414A4817B
:1018C0001042084040104017FC2040E0E021502228
:1018D000482C4620400040DBDA1104112411241169
:1018E000241124FD24112411241124112411241D58
:1018F00024E124422402040404CAD00200010000AE
:10190000007FFC0100010001003FF82108210821AF
:101910000821082128211001000100BAE8001080E8
:1019200020407C1F44846444544444044C24404478
:101930007EC40247025C7A4802400A0004D1B60025
:101940000027F01110111001100110F11017D01123
:1019500010111011101112150A190A11060102B501
:10196000E70100010001003FF82108210821083F9C
:10197000F82108210821083FF8210A01020102008C
:10198000FED7D300007FF800100020004001800146
:1019900000FFFE010001000100010001000100053F
:1019A000000200D3D002000200FFFE040004000F7A
:1019B000F0081018102FF0481088100FF0081008C9
:1019C0001008500820CFDE00007BF84A0852085368
:1019D000F8620852084BF84A444A486A305220429A
:1019E00010428843064200B9AB008004800480089E
:1019F00040084010202010420882060400044008DD
:101A00002010203FF010100000CBBE00003FF80077
:101A10000800087FE8000800081F88108810881058
:101A20008810881F88108800280010CDBC00007F17
:101A3000FC4204420447E44C445284410446C478C6
:101A40003C43044084460441847FFC4004D0CE00E3
:101A5000007F8412041208121012221202FFC41214
:101A6000081210122212022204220842108260D3AD
:101A7000A208200820FFFE0820010001001FF0112D
:101A80001011101110FFFE0280044008203018C011
:101A900006CEC4020001000100FFFE101010100865
:101AA0002008200440028001000280044008203009
:101AB00018C006CAD4002820241024102007FE00D5
:101AC00020F02017E0112011101110151019CA175D
:101AD0000A02060002D6D001000100010001003F09
:101AE000F8210821082108210821083FF8210801D0
:101AF00000010001000100B2E2000427C4144414F4
:101B000054855445544554155415542554E55421D1
:101B1000042284224424140808D2BA0080204017EA
:101B2000FE11208120423C4244166412942348E274
:101B30004822302220225022880306BEA70FE00848
:101B40002008200FE0082008200FE000007EFC4263
:101B50008442847EFC428442847EFC4284CFD40052
:101B6000001FF0101010101FF0101010101FF004C4
:101B70004044442444144814500440FFFE0000CA6A
:101B8000BE00003FF80000000000000000FFFE0162
:101B90000001001110110821044102810205000218
:101BA00000C6C100003FF8200820083FF82410229A
:101BB000202FF8222022203FFC2220422044208493
:101BC000200820BDC7080008001FE020204040BFBB
:101BD000F8210821083FF8210821083FF821084191
:101BE0000841288010B6C8010000803FFE22202254
:101BF000203FFC2220222023E020002FF02410424E
:101C00002041C08630380EB3CC08001DFCF1041111
:101C1000041104FDFC1000300039FE5420542091C2
:101C2000FC1020102013FE1000D0F2010000803FB5
:101C3000FE200023F8201020A020402FFE2042206C
:101C40004420404040404081400080C6AC004010ED
:101C5000401040104010401FFC1000100010001FEA
:101C6000E0102010201020202020204020D0E8006C
:101C7000003FF801007FFE41029D7401001D7000CD
:101C800000FFFE02003FF82488248824A82010D2F8
:101C9000AA00007FFC044004403FF8244824483F49
:101CA000F802007FFC042008401C80038006703886
:101CB00008D0A310401020102011FEFC0010883125
:101CC000043A025488508890501050102010501040
:101CD000881306D7BC01404120212023FE02201694
:101CE000201BFC1220222023FCE220222022202381
:101CF000FE22000200B4A520202020782049FC917B
:101D0000247D24552455247DFC552454207C2854BE
:101D10002457FE45028C00C3FE1110111017FC1150
:101D200010FC0013F8120817F81A0833F8D04017FF
:101D3000FC10A0111052082406A3AC000000000003
:101D40000000000000000000000000000000000093
:101D50000030003000100020000000C7EB004040C1
:101D60004027FC204003F80040E7FE200023F82233
:101D70000823F822082BF8320822280210B5E302C3
:101D8000000200020003FC020002003FF0201020CD
:101D90001020103FF000002488224442448004BBFD
:101DA000F70100010001003FF8010001000100FF00
:101DB000FE0100010021082108210821083FF80048
:101DC00008C4BB00003FF8200820083FF824102278
:101DD000202FF80400FFFE11103FF8D1161150110A
:101DE000200100B6C10020202011FC10200020039B
:101DF000FEF002109410501110109013FE142818C9
:101E00004410820302BACD04000E007800087C085A
:101E100044FF44084418441C442A442A4448448843
:101E20007C084408000800D1D5100008FE7F10226D
:101E300020147C7F444454485452544454485451D0
:101E4000544228442488423082C9AB080008001F4D
:101E5000E020204040BFF82108210821083FF82059
:101E6000002002200220021FFE0000D6B508400814
:101E7000400FFC1040104033F8320853F89208131A
:101E8000F8120813F8120812081FFE1000000000D4
:101E90000000000000000000000000000000000042
:101EA0000000001FCC000C00000000000000000833
:101EB00000300060000800300060000000022003D5
:101EC000FC1E20022003FC1E200220000000000E49
:101ED0001811043FFF10840C78000000000F001060
:101EE000840F3800C0077818840078000000780F4D
:101EF0008410C411240E9800E400840008080068CF
:101F00000070000000000000000000000000000061
:101F100000000007E0181820044002000000004004
:101F2000022004181807E000000000000002400230
:101F30004001800FF001800240024000000080005C
:101F40008000800FF8008000800080000000010009
:101F50000D000E0000000000000000000000000066
:101F600080008000800080008000800080000000F1
:101F70000C000C0000000000000000000000000049
:101F8000060018006001800600180020000000070D
:101F9000F0080810041004080807F000000000080A
:101FA0000408041FFC000400040000000000000EF0
:101FB0000C10141024104411840E0C000000000CAE
:101FC0001810041104110412880C700000000000A5
:101FD000E00320042408241FFC0024000000001F4C
:101FE000981084110411041088107000000000077C
:101FF000F008881104110418880070000000001C0B
:1020000000100010FC13001C001000000000000E67
:102010003811441084108411440E38000000000769
:1020200000088C10441044088807F00000000000ED
:10203000000000030C030C00000000000000000082
:102040000000010106000000000000000000000088
:102050008001400220041008081004000002200241
:102060002002200220022002200220000000001096
:102070000408080410022001400080000000000E47
:10208000001200100C106C10800F00000003E00C18
:102090001813E4142417C4082807D0000000040013
:1020A0003C03C41C40074000E4001C000410041F53
:1020B000FC1104110411040E880070000003E00CF0
:1020C0001810041004100410081C10000010041F45
:1020D000FC100410041004080807F0000010041F8E
:1020E000FC1104110417C410040818000010041F88
:1020F000FC1104110017C010000800000003E00CE0
:10210000181004100410441C780040000010041F34
:10211000FC10840080008010841FFC10040000105C
:102120000410041FFC100410040000000000030051
:1021300001100110011FFE10001000000010041F0C
:10214000FC110403801464181C1004000010041F08
:10215000FC1004000400040004000C000010041F24
:10216000FC1F0000FC1F001FFC1004000010041FD7
:10217000FC0C04030000E010181FFC100007F0081E
:1021800008100410041004080807F0000010041FD1
:10219000FC10841080108010800F00000007F008F1
:1021A0001810241024101C080A07F2000010041F45
:1021B000FC1104110011C011300E0C000400000EBF
:1021C0001C11041084108410441C380000180010E6
:1021D0000010041FFC100410001800000010001F65
:1021E000F810040004000410041FF8100010001E72
:1021F0000011E0001C007013801C0010001FC010B4
:102200003C00E01F0000E0103C1FC000001004185C
:102210000C163401C001C01634180C100410001C38
:1022200000130400FC13041C00100000000804103C
:102230001C1064108413041C04101800000000001B
:102240000000007FFE40024002400200000000301B
:10225000000C0003800060001C0003000000004030
:1022600002400240027FFE0000000000000000006B
:10227000002000400040004000200000000001005D
:102280000100010001000100010001000100004007
:1022900000400020000000000000000000000000DE
:1022A00098012401440144014400FC000410001F73
:1022B000FC00880104010400880070000000000098
:1022C000700088010401040104008800000000007F
:1022D0007000880104010411081FFC0004000000C4
:1022E000F8014401440144014400C8000000000119
:1022F0000401040FFC110411041100180000000077
:10230000D601290129012901C90106000010041F75
:10231000FC008401000100010400FC000400000135
:1023200004190419FC00040004000000000000006F
:102330000300010101190119FE0000000010041F33
:10234000FC0024004001B4010C0104000000001056
:102350000410041FFC00040004000000000104013C
:10236000FC0104010001FC0104010000FC01040166
:10237000FC008401000100010400FC0004000000D6
:10238000F8010401040104010400F8000001010146
:10239000FF008501040104008800700000000000B7
:1023A00070008801040104010501FF00010104011E
:1023B0000401FC0084010401000180000000000011
:1023C000CC01240124012401240198000000000113
:1023D00000010007F80104010400000000010001F1
:1023E000F8000400040004010801FC0004010001DD
:1023F000800170000C001001600180010001F001FB
:102400000C003001C00030010C01F001000000019F
:1024100004018C00740170018C01040000010101B1
:10242000810171000E0018016001800100000001AF
:1024300084010C013401440184010C0000000000FF
:10244000000000000001003EFC40024002000000CD
:102450000000000000FFFF0000000000000000403E
:102460000240023EFC01000000000000000000608D
:1024700000800080004000400020002000BEF7BE29
:10248000F7BEF7BEF7BEF7BEF7BEF7BEF7BEF7BEA4
:10249000F7BEF7BEF7BEF7BEF7BEF7BEF7BEF7BE94
:1024A000F7DFF77DF7AFDBFFF7FFF7BEF7BEF7BE4D
:1024B000F7BEF7BEF7BEF7BEF7BEF7BEF7BEF7BE74
:1024C000F7BEF7BEF7BEF7BEF7BEF7BEF7BEF7BE64
:1024D000F7BEF7BEF7BEF7BEF7BEF7BEF7BEF7BE54
:1024E000F7BEF7BEF7BEF7BEF7BEF7BEF7BEF7BE44
:1024F000F7BEF7FFF739EE00D0B3E4FFFFDEF7BE1B
:10250000F7BEF7BEF7BEF7BEF7BEF7BEF7BEF7BE23
:10251000F7BEF7BEF7BEF7BEF7BEF7BEF7BEF7BE13
:10252000F7BEF7BEF7BEF7BEF7BEF7BEF7BEF7BE03
:10253000F7BEF7BEF7BEF7BEF7DFF7BEF7BEF7BED2
:10254000F7BEF7BEF7FFFFABE200D888D9FFFFDF89
:10255000F7BEF7BEF7BEF7BEF7BEF7BEF7BEF7BED3
:10256000F7BEF7BEF7BEF7BEF7BEF7BEF7BEF7BEC3
:10257000F7BEF7BEF7BEF7BEF7BEF7BEF7BEF7BEB3
:10258000F7BEF7BEF7BEF7DFF71CEFDFF7BEF7BE0B
:10259000F7BEF7BEF7FFF79AEE00E000E005D9FFBF
:1025A000FFBEF7BEF7BEF7BEF7BEF7BEF7BEF7BE7B
:1025B000F7BEF7BEF7BEF7BEF7BEF7BEF7BEF7BE73
:1025C000F7BEF7BEF7BEF7BEF7BEF7BEF7BEF7BE63
:1025D000F7BEF7BEF7BEF7FFFF63C8FFFFBEF7BE4B
:1025E000F7BEF7BEF7DFF7FFF700D802E000E04ED6
:1025F000E3FFFFBEF7BEF7BEF7BEF7BEF7BEF7BEFE
:10260000F7BEF7BEF7BEF7BEF7BEF7BEF7BEF7BE22
:10261000F7BEF7BEF7BEF7BEF7BEF7BEF7BEF7BE12
:10262000F7BEF7BEF7DFF7DFF700D0D8EDFFF7BE54
:10263000F7BEF7BEF7DFF77DF700D802E002E00053
:10264000D8DEF7DFF7BEF7BEF7BEF7BEF7BEF7BEC0
:10265000F7BEF7BEF7BEF7BEF7BEF7BEF7BEF7BED2
:10266000F7BEF7BEF7BEF7BEF7BEF7BEF7BEF7BEC2
:10267000F7BEF7BEF7FFF772E400D88FE3FFFFBEA7
:10268000F7BEF7BEF7FFF7F4EC00E002E002E0006F
:10269000E092E4FFF7BEF7BEF7BEF7BEF7BEF7BEA7
:1026A000F7BEF7BEF7BEF7BEF7BEF7BEF7BEF7BE82
:1026B000F7BEF7BEF7BEF7BEF7BEF7BEF7BEF7BE72
:1026C000F7BEF7BEF7FFFF02D800E0ECDAFFF7BE77
:1026D000F7BEF7BEF7FFFF84D801E002E002E00199
:1026E000D8ACE2FFFFBEF7BEF7BEF7BEF7BEF7BE3F
:1026F000F7BEF7BEF7BEF7BEF7BEF7BEF7BEF7BE32
:10270000F7BEF7BEF7BEF7BEF7BEF7BEF7BEF7BE21
:10271000F7BEF7FFFF32E400E001E06EE3FFFFBE2B
:10272000F7BEF7FFF7D3E400E002E002E002E001C9
:10273000E02AE2FFFFBEF7DFF7BEF7BEF7BEF7BE47
:10274000F7BEF7BEF7BEF7BEF7BEF7BEF7BEF7BEE1
:10275000F7BEF7BEF7BEF7BEF7BEF7BEF7BEF7BED1
:10276000F7DFF7FFF700D002E000D893E4FFF7BEF1
:10277000F7FFF79EF700D802E002E002E002E00176
:10278000E0ACE2FFFF7DF7DBEEFFFFBEF7BEF7BE7A
:10279000F7BEF7BEF7BEF7BEF7BEF7BEF7BEF7BE91
:1027A000F7BEF7BEF7BEF7BEF7BEF7BEF7BEF7BE81
:1027B000F7FFF7ACE201E002E000D859EEFFF7BE08
:1027C000F7FFF763D801E002E002E002E002E00078
:1027D000E0F0E3FFFFFFFFE5D052E4FFFFBEF7BEEE
:1027E000F7BEF7BEF7BEF7BEF7BEF7BEF7BEF7BE41
:1027F000F7BEF7BEF7BEF7BEF7BEF7BEF7BEF7DF10
:10280000F79EF700D802E002E000D8FFF7DFF7FFFD
:10281000FFE9D900E002E002E002D802E002E000B5
:10282000E0F7E5FFF7FFF7F4E400D88BDAFFFFBE2F
:10283000F7BEF7BEF7BEF7BEF7BEF7BEF7BEF7BEF0
:10284000F7BEF7BEF7BEF7BEF7BEF7BEF7BEF7FF9F
:10285000FFD0E300E002E002E001D0FFFFFFF7D489
:10286000E400D802E002E042D842E202E002E000E6
:10287000D0FFFFDEF7FFF799EE00D800E0CCDAFFDB
:10288000FFBEF7BEF7BEF7BEF7BEF7BEF7BEF7BE98
:10289000F7BEF7BEF7BEF7BEF7BEF7BEF7BEF7FF4F
:1028A000FF67D901E002E002E043D8FFFFFFF70035
:1028B000D002E002E002D861F501E202E001E02688
:1028C000D9FFF7BEF7FFF718EE00E002E000E09650
:1028D000EDFFF7BEF7BEF7BEF7BEF7BEF7BEF7BE19
:1028E000F7BEF7BEF7BEF7BEF7BEF7BEF7BEF7FFFF
:1028F000FF43D801E002E002E000D0FFFF97ED00C7
:10290000E002E002E062E260FEE1EA02D801E08E6D
:10291000E3FFFFBEF7FFFF2EE301E002E002E0016C
:10292000D0FFFFBEF7BEF7BEF7BEF7BEF7BEF7BEDD
:10293000F7BEF7BEF7BEF7BEF7BEF7BEF7BEF7FFAE
:10294000FF02D802E002D902D800E0F8ED76ED00EF
:10295000E002E002D8C1FDC0FDE1F402D800E0923F
:10296000E4FFF7FFFF3CF700D802E002E002E000DE
:10297000E0F7EDFFF7BEF7BEF7BEF7BEF7BEF7BE56
:10298000F7BEF7BEF7BEF7BEF7BEF7FFF7BEF7FF1D
:10299000FF23D802E002E142EB02E001D8FBEE00A7
:1029A000E002E0C2E100FE80FD20FE22D801D88BCB
:1029B000E2FFFF18EE00D802E002E002E002E000D1
:1029C000E0D0E3FFF7BEF7BEF7BEF7BEF7BEF7BE37
:1029D000F7BEF7BEF7BEF7BEF7FFFFCCD2FFFFFF93
:1029E000FF06D901E002D8C0FEA2D802E023D863D6
:1029F000E002D881EBC0FD80FDE0FDE2E202E000F4
:102A0000D8A7D900D802E002E0E2D802E002E00153
:102A1000E00DE3FFFFBEF7BEF7BEF7BEF7BEF7BEA1
:102A2000F7BEF7BEF7BEF7DFF79EF700D0FFFFFF58
:102A3000FFCCE201E002D800FEC0F502D802E002BD
:102A4000E002D801ECC0FD80FDA0FDA0FD02D8028F
:102A5000E001E002E002D842D902EB02E002E0002D
:102A6000E0D0E3FFF7BEF7BEF7BEF7BEF7BEF7BE96
:102A7000F7BEF7BEF7BEF7FFF7B3E400E014EDFFD3
:102A8000FF76ED00D802D861F5C0FD81F562D8026D
:102A9000D802D841EBE0FD80F580FD20FE62E10226
:102AA000E002E002D8E2D880FE82E102E002E0002B
:102AB000D818EEFFF7BEF7BEF7BEF7BEF7BEF7BEFB
:102AC000F7BEF7BEF7BEF7FFFF4EE300E022D8FFE8
:102AD000F7FFFF01D002E081ECA0FDA0FD20FEA1E8
:102AE000EB02D9A2D0E0FDAEF649F6A0FD01EC0262
:102AF000E002D8A2E220FE40FEA2D802E002E002FC
:102B0000D0FFFFBEF7BEF7BEF7BEF7BEF7BEF7BEFB
:102B1000F7BEF7BEF7BEF7FFFF2DE301E001E025AA
:102B2000D9FFF7B6ED00D861EA00FE80FD80FDC058
:102B3000FD00FEE0FD60F54AF6DDF760FD80F5A1E1
:102B4000E281F5E0FD80FD21FE02D802E000D8968A
:102B5000E5FFF7FFF7DFF7BEF7BEF7BEF7BEF7BE3C
:102B6000F7BEF7BEF7BEF7FFF772E400E002E00140
:102B7000E000D851E4C9D901D8E1FDA0FD80FD4AAB
:102B8000F6C3F560FD60FD8DF6FFFF40F560FDE0EA
:102B9000F5A0FD80FDA0FD01F502D800E08BDAFF75
:102BA000FFFFFF15ED18EEDFF7BEF7BEF7BEF7BE6D
:102BB000F7BEF7BEF7BEF7DFF73CF700D802E0023A
:102BC000E002D801E001E002E002E140FEA0FD40A9
:102BD000F535F757F700F558F79AFF00F5AFF628E7
:102BE000F680FD80FD20FE42E201E06ADAFFFFF898
:102BF000EDC4D800D0FFFFBEF7BEF7BEF7BEF7BEEC
:102C0000F7BEF7BEF7BEF7BEF7FFFF88D901E002B7
:102C1000D842EC42E202D802D802D882D860FD80C5
:102C2000FD40F536F7DCF7FFFF57F779FFFFFF4070
:102C3000F580FD00FE61F402D802D8C9E101D80098
:102C4000E000D8DBEEFFF7BEF7BEF7BEF7BEF7BE7B
:102C5000F7BEF7BEF7BEF7BEF7DFF77DF700D80285
:102C6000E062D8A0FE20FEE0F4E1EB81EBA0F4A04E
:102C7000FD80FD40F5FFFFFFFFFFFFFFFF08F6802F
:102C8000FDC0FD42E302D002D842D862E102D80082
:102C9000D8F4ECFFFFBEF7BEF7BEF7BEF7BEF7BE37
:102CA000F7BEF7BEF7BEF7BEF7BEF7FFF776ED004B
:102CB000D802E0C2E140FEC0FDC0FDE2F5A0F56033
:102CC000FD40FDC5F5FFFFFFFFFFFF36F720F58054
:102CD000FD80F5C0FDE0FD40FEA0FEA1E100D8357D
:102CE000EDFFF7BEF7BEF7BEF7BEF7BEF7BEF7BE05
:102CF000F7BEF7BEF7BEF7BEF7BEF7DFFFFFFF591F
:102D0000F601E002E082E120FEE0FDA0F5D0F6DD74
:102D1000F7FFFFFFFFFFFFFFFFFFFF35F74AF6A2B8
:102D2000F5A0FDE0FD40FE01EC01E065E03CF7FFB1
:102D3000FFBEF7BEF7BEF7BEF7BEF7BEF7BEF7BEE3
:102D4000F7BEF7BEF7DFFFFFFFFFFFFAEE4FBC4411
:102D500092619142D002E802E041EBE0FD20F6A052
:102D6000F502F6AAF6CEFEEEFEABFE44F6E0FD401E
:102D7000FE41F501EB42E002E081A84EB499DEFF8E
:102D8000FFFFFFFFFFBEF7BEF7BEF7BEF7BEF7FFC0
:102D9000FFFFFFFFFF3CEF6FBCC389E080408981EC
:102DA00091A291C289429982C002E002E0C2E04150
:102DB000EA00EB80F380EB80F320EB61EA81E9022B
:102DC000E802D802C802A9A289A2896189008940C3
:102DD00089EDB398DEFFFFFFFFFFFFBEF7FFFF1790
:102DE000DE4FBCA391A08020898191A291A291A2E3
:102DF00091A291A291A291C289C289219903B16243
:102E0000C002C802C802D002C822C001B8A1A842AC
:102E100099A289C289A291A291A291A291A2918222
:102E2000914089E0884189CCBBD7D5FFFF08BB60C2
:102E3000E400ED01F563CBA3998189A291A291A24F
:102E400091A291A291A291A2910089C79AD4CD405A
:102E500081A289C289C289C2896081F0BC49A3006C
:102E600081A191A291A291A291A291A291A29182FB
:102E700091E4A1E3D341F5E0ECA0ECCAC341F52213
:102E8000C323C342C3A1E4E2EC04A28291A291A2B3
:102E900091A291A2916189E08032CDFFFF208182D1
:102EA00091A291A291A291A2916189E8A2FFFFB59E
:102EB000D500814089A291A291A291A291A29144B0
:102EC000AA41F541D463C3A3CB02BBC4F5D2F6C07B
:102ED000D301ED02D421ED61DC22EDE3A18291A2C8
:102EE000916189E080A79A9DF7FFFF29A34089A2FD
:102EF00091829182918291A291A2910081FFFFFF24
:102F0000FFFFFF4AABC0806189A291819124AA6131
:102F1000F502D441F5A2C321EDA0D314FFFFFF6D4C
:102F2000C400DCE0EC41DC62C360F522C3E080C099
:102F30008008A399E6FFFFFFFFDAE6C0806189629F
:102F400091A291C299A39983916289E08858DEFF8A
:102F5000FFDFF7FFFF3CEF8BABE080209163CB619D
:102F6000F5C3CB81E440F5A0D36EC4FFFFBEF7FFED
:102F7000FF59E689BB42C3E0D385DCECBB53CDDE11
:102F8000FFFFFFFFFFBEF7FFFF2DB46191A3CB2230
:102F9000ED21F5E1EC21ED81FD22DCA2994EBCFF93
:102FA000FFBEF7BEF7DFFFFFFFFFFF37DE06B3E030
:102FB000C260CB80BA85AAF7DDFFFFBEF7BEF7BEC1
:102FC000F7DFFFFFFFFFFFFFFFFFFFFFFFFFFFDF59
:102FD000F7BEF7BEF7BEF7FFFF0EC460E482E4A2BF
:102FE000CBC1ECE1ECE3D3A59941F582CB8ABBFFE1
:102FF000FFBEF7BEF7BEF7BEF7BEF7FFFFFFFF7ECF
:10300000F7DBE67DF7FFFFFFFFBEF7BEF7BEF7BEBB
:10301000F7BEF7BEF7BEF7BEF7BEF7BEF7BEF7BE08
:10302000F7BEF7BEF7BEF7DFFF9ADE40F5C2A1A0FC
:10303000FDE0ECA1E440F520F580E4A0A911D5FF66
:10304000FFBEF7BEF7BEF7BEF7BEF7BEF7BEF7DFAF
:10305000F7DFF7DFF7BEF7BEF7BEF7BEF7BEF7BE86
:10306000F7BEF7BEF7BEF7BEF7BEF7BEF7BEF7BEB8
:10307000F7BEF7BEF7BEF7BEF7FFFFDCFF4EDD0978
:10308000B3A5B284B2A5AA29BB6FC4DAEEFFFFBE16
:10309000F7BEF7BEF7BEF7BEF7BEF7BEF7BEF7BE88
:1030A000F7BEF7BEF7BEF7BEF7BEF7BEF7BEF7BE78
:1030B000F7BEF7BEF7BEF7BEF7BEF7BEF7BEF7BE68
:1030C000F7BEF7BEF7BEF7BEF7BEF7BFF7FFFFFFCD
:1030D000FFFFFFFFFFFFFFFFFFFFFFDFFFBEF7BEAA
:1030E000F7BEF7BEF7BEF7BEF7BEF7BEF7BEF7BE38
:1030F000F7BEF7BEF7BEF7BEF7BEF7BEF7023489DC
:103100006E00807CB1337CB033680D0468EF7CB511
:10311000337CB43378037F10220468E17D5092F74A
:103120007D457D51BF2140067C807F017F12123496
:103130004C7EA1D05CB004780320D5C17CB004786B
:10314000075002B2D502349192D5BE80FF68F67C5A
:10315000B89CB06C00602AB418057C4102346550FC
:10316000FB80032F00047C9B5E900778F630E4061A
:103170007C437D106D0030E3087C437C327C210A67
:103180000030F5199F10780E2202348E1B8068F9EA
:103190002F1150020B707CB530E7F1801B2D317C74
:1031A000B5A5397C5B50110B8078030234911E3435
:1031B0001350034E60801A2B0234655D22680D5D4A
:1031C0000078122D220B4068099F11222D000B0060
:1031D00078F902348912344C5C800B8068082481B1
:1031E00050072CB0500A0234912CB0400302348EA8
:1031F0007C8B5D1178267CB17CA5BE1080680A5D51
:1032000033780DA5BD80057F1002347B6D008030C2
:103210007F017C5B7CB17CA5AD1280245D33780698
:10322000A5BD80F080E1CA887D41AD437CB17CA51D
:10323000AD122D1450020B047C5BAD232F01DA88F4
:10324000A42D05BE008040060B80780480982F00D6
:103250007C437C507C617C72023465BE24FFFF6835
:1032600006BE04FFFF780302348912344C5CB004BC
:1032700068F57CB8A54868EF7CB870039F1122A55B
:10328000B800030234912E008150079C8038070259
:10329000348E9C8050ED0A51C2E74D5178030234C0
:1032A0007B7E5400807E901A6C0080061B90681410
:1032B0002F11BF1040049F104CAB0330E7EECAA89B
:1032C0006CAA80E8DA39DA587C4ABE5080500A1B72
:1032D0008068BC2F1150020B7002346574F86CAA20
:1032E0006E40806E0080BEB0FF68277C837C975C58
:1032F0003B5C7BBF10682AF4400D7C382D15F45CD4
:103300003B500F0B04800B7C792D35F45C7B500215
:103310000B24BF10680B7CB020E7067CB420E701CB
:10332000B3227EA020800C7EA01080057EA0086CB9
:10333000556D333392D5500A6E34FFFF6E24FFFF74
:103340000B1CA5EC3340062F11D5F0F6227CBA24D5
:103350007EA2D5137C767C65A5CC92E77C5B227C33
:10336000B5337CB43392D54E5080248140039F11F5
:10337000227C457C567C676C7724E0500E7E1CFFD7
:10338000FF221E341E2450034E60800478F430D592
:103390000A6E34FFFF6E24FFFF0B1C227F707F51EB
:1033A0007EC400017ED410467E9433AF0234CA40FE
:1033B00005E47A7BB0227A7BB00B7C227CB5A2E755
:1033C000D2E77C1B7CB4334009680DB4FF0BA5BD6C
:1033D000FF03023489023491227C0B2481C2E0F580
:1033E00082F4042CB07C2BC3137C4B7CB592E77C1D
:1033F0005B7F417CB6A2E77CB1A5BA7F02C31334E0
:103400000094007C2B7EA091A47CBA13F494FEACB3
:10341000B2337CBA33248CD3137C5BE492E77C6BAD
:103420006C777E403F7583027F517F017F1412329B
:103430005B7F051231039E240080D583EB7E0182E1
:103440006C110E041E042D205E407F222D0092D5AB
:103450000E104E10807D422D445002B2D54E508049
:103460006C447CB8222C4450120B1C7E40005E50F1
:103470007FBE18000078040B806816A2D57CB813B4
:103480007C4B7CB592E77C5B227E1CFFFF229F1168
:10349000227E24FF8020D5026C456D3322540F24F8
:1034A00090D43440D430F30CBEB0414007BEB05B82
:1034B000500224204CCC68021BC00B84D389944C4E
:1034C000CC680B74201234B480F5CA3B6D889F33EE
:1034D0007CAE7E5BB00B5C7007C37D38DA3B8994B1
:1034E000B42569C2F37E5BB00B5CA5F824D0BEB0F6
:1034F0000A501B7E500A20F60DAC5CA52D7CCB70CB
:10350000034EF00180DDAC5DA52D7CDB80D524CFA2
:10351000BEB01AA5E850055E00DFD2F390389FA335
:10352000E4936011BCB078F77417934CAB30F6B3EA
:103530004EF08080AEA3E4936010BCB078F77416B0
:10354000937C3B7423937C2B89147CB08013742070
:103550001234B420F205BEC00250F31B6D29B60030
:10356000011234B40234BF1B6E691600020B6A00EC
:10357000BE08000078087E0400FF7E14754E20F21D
:103580001E4CCC681A7F10E47E1B804C8868070BA9
:103590001C04BCBD78F2C2F6CA0B12369EDA0B7E52
:1035A0000BB060C0CA0B1234B4DA0B0B0C4CDD68E4
:1035B000EE1BD078EA80ADD2F07E101080037E1032
:1035C000085EB05F800AD2F67E100A80057E100A7F
:1035D000C2F66D119F117E00201B6C7E6B7030F661
:1035E000021A3720F1051B6C7E6B6030F6041A2638
:1035F0001A2430F0051B6D0B6A20A5EC3382F6927D
:10360000F6500A7CEA9F229F217F127CAE4C4478C0
:103610000F7C457C567C676C772E00F878EF801223
:103620002F117CB3337C3B9CB140047C3B0B70A5D9
:10363000D8EE7CB230E005DAB8C44C3BCA380B2077
:103640007E00207E3000BE18000078C1BE100878D1
:103650000730F404C2F480B5CA287CB2BCBD38027D
:103660007CBD12369EDA28BC2D500A1BD0E4CA2835
:1036700012349D80F07CB213DAB84004C4CAB8C4D6
:10368000CA28BEF08040095CDD7805A5DA02600634
:103690005EF07F12349DDA28A5DADA0234BFBEF07C
:1036A00001680F30F402240220F50620F70330F6FB
:1036B000010420F229BCBC5025CAB87CBF13B0E677
:1036C0007420501174307C8A5E80F068081236DEF7
:1036D0005EA00F80031234B4DAB8BCBC78DB30F4DF
:1036E0000F74301234B4745830F30274781234B456
:1036F00030F605742D0234B4742B20F5F8742020B4
:10370000F7F3221B6C7E6BB010F1021B6C20F60BE2
:1037100030E704F404D2F27CCB800520E7057CDBA3
:103720000234E35EF07F80F81B6E691600020B6ABC
:103730000030F0076D221B0A200B0D1B0A8002349B
:10374000CEE46C22BE3007500B7F1F2D312E34FF8C
:10375000F77E39B0227CBF20E7A8742E4EF080029D
:1037600034B4123888403D7CBD7003047CDB1239D0
:103770009F7C3D4C3368101B307CBE20E40912371F
:103780004170044C3378F07CBD7CD3BEA0FD481C56
:10379000BCAB5818E49CBA2CB31801E47CDB0238AB
:1037A00029123888406E7CBD0412399F7AFBA07CB8
:1037B000AE7CBDA2F492F0C2F44002600104240584
:1037C00012369E7E30FF0B30123741CA3812349DBC
:1037D00020F0044CDD6803123755DA38BC3D78E63A
:1037E000740E12349D742B7EFBA030F707742D6E7F
:1037F000A0FF0BA07AFBA01234B47EA00A7EFBB01F
:10380000847AFBA012349D7EFBB012349D9EF8009A
:10381000080234BFD2F27ED00002357E12388840D2
:10382000F37CBA2CBD0412399F7AFBA07CBA7CAE23
:1038300030E701E40420F4044CDD6805D2F0C2F462
:10384000042CBD12369E6C337EFBB0601B20E71249
:10385000147AFBB0123741CA3812349DDA380B3073
:1038600080E6047AFBB01B30123741CA3812349D0F
:103870004CDD68071237551BD080E19EF8000930F7
:10388000F0031237550234BF7CEA7CAF10F7037E99
:10389000D0067CFA1B6E693600020B6A200238E7FC
:1038A0002D2B204C4248232E0053584F444943555A
:1038B000502A4E4645470004208001020010406710
:1038C000B9BEC6C653CDB703281CA1623535353500
:1038D0003535353537373837374E614E002B494E41
:1038E00046002D494E46007D522D557CBE92E67C09
:1038F000EB7CBA601F0470287CB5C2E77E0400FF31
:1039000060067E1438D9D3227E1438E240047E1437
:1039100038DDD322DA099F22CA2BCA2BC3CA092257
:103920000A0A7E144D10AD109E083AF09E10267CB7
:10393000B5C2E77EA0567C9BA46E54FFFF2E54C5F3
:1039400011ACA92D15E4A539CAB8CA1B20E70A1283
:103950003A12DA1B12325B800AF404123A12DA1BB2
:103960001231BBDAA87CB5337CB4334E50806C4442
:1039700024822F111478FBDA497407BE400A4009EB
:103980009E400ACA0201140BA0CA486C442F117F42
:10399000012F112F112F101478EFCA48CA49227F26
:1039A0000F20E73ABEB007400274070A0B2D109EA5
:1039B0001400097E19B02EB0FB501F4C116817E49B
:1039C0007A19B01B147E19B0047A19B0B40A0BE44A
:1039D0007A19B0A5D9ED0BA074017A19B0225EE076
:1039E000BF223F8000004120000042C80000447A0E
:1039F0000000461C400047C35000497424004B1887
:103A000096804CBEBC205A0E1BCA6753C21C749DC4
:103A1000C5AE7C7B6006540768162323123A377CB8
:103A2000B75438680A7F10123A341231BB7F012232
:103A30007CB7543803241C6CAA2E5439E27E44000F
:103A4000FF0B2A0069120002227D51AD037D027D29
:103A500021AD052D12AD352D21227D02AD31AD10E8
:103A60002D21226D0074104D00780B4D2278278D8A
:103A7000317D126D22227D437D326D222F112D4426
:103A80005002A50FBF1040049F100B901478ED7FDB
:103A9000016D227D34227D417D138D247D022F0016
:103AA0004004BD0440049D040B141478F17D237D73
:103AB000317D106D00226CAABE08000068201E54E3
:103AC0000B5450167E1B807A0B800B1C0B0C800A4B
:103AD0000B1A401B0A400B1D0B0D1B5478F222CA17
:103AE0003BE4901080F06D3390108D1BEA30901005
:103AF00080F07E34001F9010BD1BEA307E34FFFF43
:103B00009010BF1BEA30126C2F7E34F8009010BD6D
:103B10001BEA307E34FFFF126C2F6D339010BD1BFB
:103B2000EA307E14789F7E0400FF693000020B0AA1
:103B300020901019793E00021BEA207E2400287D87
:103B4000327E1400A07E04006474101267BE7E24CE
:103B500000147D327E14F800126EDBE4901060F0E9
:103B60009F11901061793E00021BEA2074019010B1
:103B7000480BEA3099349010607EEBA07CBA54C0B8
:103B8000B4400280030242866D3390108D1BEA30F0
:103B90009010607CBA54BFF090104C0BEA4090102B
:103BA000807EEB707404AC7B7D232E2410707A51E0
:103BB000827A41831BEA409010560BEA202E341083
:103BC000727A71827A61831BEA20901080E004F09F
:103BD000901080E01BB1682A14684C14687C2403A0
:103BE00068030242867E2400147D327E14FFFF1299
:103BF0006EDB9010C10BEA309E3400147E2400145A
:103C0000804E9010C10BEA309E3400147E240014C4
:103C10007E14FFFF126EDB7E3400149010C30BEA9B
:103C2000209E24001480297E3400149010C30BEAD7
:103C3000209E2400147E14FFFF126EDB9010C10B37
:103C4000EA309E3400149010C30BEA209E24001426
:103C50007E14F800126EDB0242869010740BEA208C
:103C60009010700BEA309D321274C11A261A2490FB
:103C70001085793E00021BEA209010760BEA209016
:103C800010720BEA309D321274C17D731A661A6C81
:103C9000901085693E00020BEA209010857F01128A
:103CA0003A49793E00021BEA207F137F03123A490A
:103CB0007F31901085693E00020BEA202F13E41239
:103CC00033221233BC12335F9010811BEA30901004
:103CD0007C0BEA209010780BEA309D321274C11AE6
:103CE000261A24901085793E00021BEA2090107E4F
:103CF0000BEA2090107A0BEA309D321274C17D736A
:103D00001A661A6C901085693E00020BEA2090102A
:103D1000857F01123A49793E00021BEA207F137F1A
:103D200003123A497F31901085693E00020BEA2068
:103D30002F13E41233221233BC12335F9010831B13
:103D4000EA307D23E41233277F019010810BEAF0E3
:103D50007D2FE412332712325B901089793E0002E6
:103D60001BEA207E1433337E043F731232DC50038F
:103D70000240007E1466667E043F86901089693E8C
:103D800000020BEA201232DC28030240004DFF78CB
:103D9000030240009010830BEA304D337803024059
:103DA000009010780BEA209010700BEA309D3212D0
:103DB00074C11A261A24901085793E00021BEA204D
:103DC00090107A0BEA209010720BEA309D32127438
:103DD000C17D731A661A6C901085693E00020BEA69
:103DE000209010857F01123A49793E00021BEA209B
:103DF0007F137F03123A497F31901085693E00029C
:103E00000BEA202F13E41233221233BC12335F90DB
:103E100010811BEA3090107C0BEA209010740BEAA2
:103E2000309D321274C11A261A24901085793E00F2
:103E3000021BEA2090107E0BEA209010760BEA30ED
:103E40009D321274C17D731A661A6C901085693E9A
:103E500000020BEA209010857F01123A49793E005A
:103E6000021BEA207F137F03123A497F31901085AD
:103E7000693E00020BEA202F13E41233221233BCF6
:103E800012335F9010831BEA307D23E41233277FC7
:103E9000019010810BEA20E412332712325B90105C
:103EA00089793E00021BEA207E1433337E043F737F
:103EB0001232DC50030240007E1466667E043F86A8
:103EC000901089693E00020BEA201232DC280302BE
:103ED00040009010780BEA209010740BEA309D326D
:103EE0001274C11A261A24901085793E00021BEA2A
:103EF0002090107A0BEA209010760BEA309D321257
:103F000074C17D731A661A6C901085693E00020BAD
:103F1000EA209010857F01123A49793E00021BEA9F
:103F2000207F137F03123A497F31901085693E004C
:103F3000020BEA202F13E41233221233BC12335F38
:103F40009010811BEA3090107C0BEA209010700BCF
:103F5000EA309D321274C11A261A24901085793ED7
:103F600000021BEA2090107E0BEA209010720BEAF0
:103F7000309D321274C17D731A661A6C9010856977
:103F80003E00020BEA209010857F01123A49793EEB
:103F900000021BEA207F137F03123A497F31901001
:103FA00085693E00020BEA202F13E41233221233FC
:103FB000BC12335F9010831BEA307D23E412332759
:103FC0007F019010810BEA20E412332712325B90BC
:103FD0001089793E00021BEA207E1433337E043FB1
:103FE000731232DC401A7E1466667E043F8690109F
:103FF00089693E00020BEA201232DC380302409746
:10400000E4901080F09010C10BEA309E34001490C0
:1040100010C30BEA209E2400147E14FFFF126EDBF7
:104020007E2400147D327E14F800126EDB9010782E
:104030000BEA309010FC1BEA3090107A0BEA3090BB
:1040400010FE1BEA3090107C0BEA309011001BEA46
:104050003090107E0BEA309011021BEA306D117E19
:104060000442C8901089693E00020BEA201231BB5D
:1040700012335F9011041BEA309010700BEA3090FD
:1040800010720BEA209010740BEA109010760BEA75
:10409000001242AD023B6C9010700BEA309010742D
:1040A0000BEA209D237CB41233277F019010C10BB3
:1040B000EA209E240028E412332712325B9010611C
:1040C000793E00021BEA209010700BEA30901074C9
:1040D0000BEA202D237CB4123327901061691E0057
:1040E000020BEA001231BB7F019010C10BEA20E401
:1040F0001233271231006D117E04400012325B1220
:10410000335F9010691BEA309010720BEA30901008
:104110007A0BEA209D237CB41233277F019010C3D1
:104120000BEA209E240028E412332712325B901001
:1041300065793E00021BEA209010720BEA30901065
:104140007A0BEA202D237CB4123327901065691E68
:1041500000020BEA001231BB7F019010C30BEA2072
:10416000E41233271231006D117E04400012325BDD
:1041700012335F90106B1BEA30901061693E0002B1
:104180000BEA2012335F1274C1BE3400021819907A
:104190001065693E00020BEA2012335F1274C1BE43
:1041A000340002180302422EE4901080F09010C1F7
:1041B0000BEA309E3400149010C30BEA209E2400BA
:1041C000147E14FFFF126EDB7E2400147D327E14F9
:1041D000F800126EDB7E3477EC7E2400FF9010191D
:1041E000793E00021BEA207E3400287E24001A90CB
:1041F00010C10BEA109010C30BEA0074101267BED6
:1042000090106DE0700474018001E490106DF090E6
:10421000106DE0600A749090106EF074D080087495
:10422000D090106EF0749090106FF0023B6C7E3462
:10423000001F9010BD1BEA307E34FFFF126C2F7EF2
:104240003477D47E2400FF901019793E00021BEAD7
:10425000207E3400237E24006E9010C10BEA109063
:1042600010C30BEA0074101267BE7E3403E81274A8
:104270006912728CBE34EF1578031268677E34FFC2
:10428000FF126C2F80247E34000A12746990108D06
:104290000BEA300B341BEA3090108D0BEA30BE3441
:1042A00003E83803023B6C125409DA3B22CA3B7D17
:1042B000707D619010FA1BEA209010F81BEA307EA6
:1042C00034F8009010BD1BEA307E3478227E240042
:1042D000FF901019793E00021BEA207E3400287EF0
:1042E0002400A09010C10BEA109010C30BEA0074D8
:1042F000101267BE7E34781E7E2400FF901019795C
:104300003E00021BEA207E3400787E2400A090103C
:10431000C10BEA109010C30BEA0074101267BE7E46
:1043200034781A7E2400FF901019793E00021BEAAF
:10433000207E3400287E2400B49010C10BEA109037
:1043400010C30BEA0074101267BE7E3478167E2408
:1043500000FF901019793E00021BEA207E3400789D
:104360007E2400B49010C10BEA109010C30BEA0039
:1043700074101267BE7E3478127E2400FF901019EC
:10438000793E00021BEA207E3400287E2400C8907B
:1043900010C10BEA109010C30BEA0074101267BE34
:1043A0007E34780E7E2400FF901019793E00021BA7
:1043B000EA207E3400787E2400C89010C10BEA10F9
:1043C0009010C30BEA0074101267BE7E34780A7E28
:1043D0002400FF901019793E00021BEA207E340071
:1043E000287E2400DC9010C10BEA109010C30BEA69
:1043F0000074101267BE7E3478067E2400FF901091
:1044000019793E00021BEA207E3400787E2400DC0D
:104410009010C10BEA109010C30BEA0074101267E1
:10442000BE7E3477FE7E2400FF901019793E000294
:104430001BEA207E3400287E2400F09010C10BEA95
:10444000109010C30BEA0074101267BE7410901124
:1044500018F07E3400407E2400A09010F80BEA1083
:104460006D00740412632D7410901118F07E3400E6
:10447000907E2400A09010FA0BEA106D00740412D4
:10448000632D7410901118F07E3400407E2400B427
:104490007D166D00740412632D7410901118F07E57
:1044A0003400907E2400B47D176D00740412632DD7
:1044B0007410901118F07E3400407E2400C89010D3
:1044C000FC0BEA106D00740412632D741090111827
:1044D000F07E3400907E2400C89010FE0BEA106D30
:1044E00000740412632D7410901118F07E34004093
:1044F0007E2400DC9011000BEA106D00740412633E
:104500002D7410901118F07E3400907E2400DC9001
:1045100011020BEA106D00740412632D74109011D7
:1045200018F07E3400607E2400F09011040BEA1035
:104530006D00740312632DDA3B22CA3B7F31901069
:10454000A91BEA00791E00027E3400007E240001CF
:104550009010B9793E00021BEA20740C7F131E34C0
:104560001E2450034E60801478F49010AF793E0002
:10457000021BEA207F135E600F9010B31BEA307EAF
:104580002410009D239010B51BEA209010AD0BEA7B
:1045900030BD3238030247147E3410009011301BB6
:1045A000EA309010B9691E00020BEA009010AF6962
:1045B0003E00020BEA20740C2F111478FB126D8E52
:1045C0006D339010B780259010B70BEA309010B380
:1045D0000BEA202D239010B9691E00020BEA002D72
:1045E000127E0BB0B4FF189010B70B341BEA30905A
:1045F00010B50BEA209010B70BEA30BD3240C890DE
:1046000010B50BEA209010B70BEA30BD3240030220
:1046100046949010AF693E00020BEA201271CE6DF5
:10462000339010B780349010B70BEA309010A9691E
:104630001E00020BEA002D137E0B309010B30BEA24
:10464000002D039010B9693E00020BEA202D307A4C
:104650001B309010B70BEA300B341BEA309010B5CA
:104660000BEA209010B70BEA30BD3240B97E34100F
:10467000009011201BEA309010B9691E00020BEA6D
:10468000009010AF693E00020BEA20740C2F111449
:1046900078FB80189010B50BEA309011201BEA309F
:1046A0009010A9691E00020BEA007F1312690E9098
:1046B00010B50BEA209010AD0BEA30BD32685E9069
:1046C00010AF691E00020BEA000B0C791E00021BE2
:1046D000EA006D119010B31BEA109010A9691E003A
:1046E000020BEA002D12791E00021BEA007D126DFA
:1046F000002F309010AD9D321BEA309010AD0BEAC8
:1047000030BE341000280D7E2410009010B51BEA36
:10471000200245989010B51BEA30024598DA3B22FA
:10472000D2B47E340001127469C2B47E34000A121D
:104730007469D2B47E3400781274697E34007812C1
:1047400074697E3400111273297E34007812746902
:104750007E3400361273296D331273717E34003A41
:104760001273297E3400551273717E3400B21273B5
:10477000297E34000C1273717E34000C1273716D3B
:10478000331273717E3400331273717E340033122E
:1047900073717E3400B71273297E34007512737101
:1047A0007E3400BB1273297E3400151273717E347F
:1047B00000C01273297E34002C1273717E3400C243
:1047C0001273297E3400011273717E3400C3127398
:1047D000297E3400131273717E3400C41273297E53
:1047E0003400231273717E3400C61273297E3400A4
:1047F0000F1273717E3400D01273297E3400A4121C
:1048000073717E3400A11273717E3400D612732945
:104810007E3400A11273717E3400211273297E341C
:1048200000E01273297E3400D01273717E340008C8
:104830001273717E3400101273717E34000D127386
:10484000717E34000C1273717E3400071273717E16
:104850003400371273717E3400531273717E34004A
:104860004C1273717E3400391273717E340015124C
:1048700073717E3400151273717E34002A127371C5
:104880007E34002D1273717E3400E11273297E3460
:1048900000D01273717E34000D1273717E340012D9
:1048A0001273717E3400081273717E340008127323
:1048B000717E3400151273717E3400341273717E70
:1048C0003400341273717E34004A1273717E3400E6
:1048D000361273717E3400121273717E340013121B
:1048E00073717E34002B1273717E34002F1273713A
:1048F0007E340029027329CA7990113AF06CFF9036
:104900001143E004F0901143E00A3B7E24000A8D3D
:10491000324D226808BEB00A4003024A737E34005A
:10492000027E14113A7E0400017401126B3D901155
:104930003AE0540F7803024A73BEB0064003024ABD
:10494000737E3400FF60053E341478FB7CB764FF4F
:1049500044C0901060F06CEE7E2400017CBE6005C7
:104960003E241478FB901060E00A3B5D327803022D
:104970004A480A3E6D222F112E2400FF2E1879205E
:104980000B1A307E14113B7E0400017404126B3D3F
:1049900090106DE030E03E90113BE0540F7C6B6C6A
:1049A0007790113CE00A4B2D437E7002AC7E7D2354
:1049B0002E2410567A51827A41831BEA4090113D91
:1049C000E0540F7C2B6C3390113EE00A2B2D212EEE
:1049D00034104C803C90113BE0540F7C6B6C779012
:1049E000113CE00A4B2D437E7002AC7E7D232E24C9
:1049F000104C7A51827A41831BEA4090113DE05479
:104A00000F7C2B6C3390113EE00A2B2D212E34109D
:104A1000567A71827A61831BEA2090113BE054F050
:104A2000BEB08068236D227E7002AC7E7D132E1492
:104A300010567A31827A21831BEA202E34104C7A68
:104A400071827A61831BEA200BE0BEE005680302F5
:104A500049587EF00190104C0BEA304D33780F909E
:104A600010560BEA304D337805E490113AF0E4909B
:104A70001143F090113AE0541F782D9010607EEBB6
:104A8000A07CBA30E70A9010607CBA547FF080189E
:104A90007E34FFFF90104C1BEA309010561BEA301A
:104AA0009010607CBA54E0F0901143E0BEB0F02862
:104AB00006740A901143F07CBFDA7922CA3B901049
:104AC00034F07F309010321BEA209010301BEA3017
:104AD0009010300BEA309010391BEA306D33901093
:104AE000371BEA309010370BEA207E340082AD325B
:104AF0007D232E2400037A51827A4183E4937E3B06
:104B0000A0BCBA6803024C262E3400047A71827A63
:104B10006183E49329A30001BCBA6803024C269088
:104B200010300BEA309010320BEA207E0400207D1A
:104B300010126CA612752EE4901035F0E490103629
:104B4000F0901034E070459010370BEA207E34006E
:104B500082AD32901035E00A2B2D322E3400057ACA
:104B600071827A6183E4931A2B901036E07E3400D0
:104B70008060050E341478FB5D3268059010BD80AE
:104B8000039010BF0BEA3012734D80769010370BF4
:104B9000EA207E340082AD32901035E00A2B2D32AF
:104BA0002E3400057A71827A6183E4931A2B901077
:104BB00036E07E34008060050E341478FB5D326888
:104BC0000F9010300BEA309010320BEA201274D1A3
:104BD0009010300BEA300B341BEA309010390BEA9E
:104BE000309010300BEA209D23BE240020781390D3
:104BF00010301BEA309010320BEA300B341BEA30D5
:104C00008012901036E004F0901036E0BEB00850EC
:104C100003024B41901035E004F0901035E0B48071
:104C2000028003024B3C9010370BEA300B341BEA36
:104C3000309010370BEA30BE3400075003024AE4CC
:104C40006D226D339010C10BEA109010C30BEA0077
:104C5000126CA6DA3B22CA3B901034F07F309010E1
:104C6000321BEA209010301BEA309010300BEA30F3
:104C70009010391BEA306D339010371BEA309010DA
:104C8000370BEA207E34004AAD327D232E24039177
:104C90007A51827A4183E4937E3BA0BCBA680302D6
:104CA0004DC02E3403927A71827A6183E49329A3F2
:104CB0000001BCBA6803024DC09010300BEA30907E
:104CC00010320BEA207E0400187D10126CA61275BB
:104CD0002EE4901035F0E4901036F0901034E0702F
:104CE000459010370BEA207E34004AAD32901035E3
:104CF000E00A2B2D322E3403937A71827A6183E499
:104D0000931A2B901036E07E34008060050E341428
:104D100078FB5D3268059010BD80039010BF0BEAF0
:104D20003012734D80769010370BEA207E34004AA3
:104D3000AD32901035E00A2B2D322E3403937A7168
:104D4000827A6183E4931A2B901036E07E340080DF
:104D500060050E341478FB5D32680F9010300BEA5A
:104D6000309010320BEA201274D19010300BEA30E0
:104D70000B341BEA309010390BEA309010300BEAFC
:104D8000209D23BE24001878139010301BEA309029
:104D900010320BEA300B341BEA308012901036E0F0
:104DA00004F0901036E0BEB0085003024CDB9010C7
:104DB00035E004F0901035E0B448028003024CD690
:104DC0009010370BEA300B341BEA309010370BEAA7
:104DD00030BE3400065003024C7E6D226D339010BD
:104DE000C10BEA109010C30BEA00126CA6DA3B224A
:104DF000CA3B901034F07F309010321BEA209010A4
:104E0000301BEA309010300BEA309010391BEA303A
:104E10006D339010371BEA309010370BEA207E3448
:104E20000022AD327D232E24171D7A51827A4183D0
:104E3000E4937E3BA0BCBA6803024F5A2E34171E7F
:104E40007A71827A6183E49329A30001BCBA680372
:104E5000024F5A9010300BEA309010320BEA207E4D
:104E60000400107D10126CA612752EE4901035F01F
:104E7000E4901036F0901034E070459010370BEA53
:104E8000207E340022AD32901035E00A2B2D322ED8
:104E900034171F7A71827A6183E4931A2B9010364B
:104EA000E07E34008060050E341478FB5D326805C6
:104EB0009010BD80039010BF0BEA3012734D8076C6
:104EC0009010370BEA207E340022AD32901035E08E
:104ED0000A2B2D322E34171F7A71827A6183E49364
:104EE0001A2B901036E07E34008060050E34147862
:104EF000FB5D32680F9010300BEA309010320BEAF5
:104F0000201274D19010300BEA300B341BEA309031
:104F100010390BEA309010300BEA209D23BE24009C
:104F20001078139010301BEA309010320BEA300BDF
:104F3000341BEA308012901036E004F0901036E016
:104F4000BEB0085003024E75901035E004F090108A
:104F500035E0B420028003024E709010370BEA3027
:104F60000B341BEA309010370BEA30BE3400385057
:104F700003024E186D226D339010C10BEA10901091
:104F8000C30BEA00126CA6DA3B22CA3B7D707DF1AE
:104F90007D629010281BEA307E3402C3AD317E144E
:104FA00003E8123A630B1C90102E793E00021BEAB4
:104FB000207D5FAD5F7D3F6D227F011E141E04507A
:104FC000034E20802F02901032791E00021BEA004F
:104FD000901036793E00021BEA209010280BEA3030
:104FE0009D3F7D267D1F3E147D071273957E180020
:104FF0000190102A0250E890103669DE00020BEA98
:10500000C07F167F06123A497F5190102A69FE0030
:10501000020BEAE07F177F07123A497F012F0590C4
:105020001032693E00020BEA20BF01286690102E64
:10503000693E00020BEA20BF6128459010280BEA68
:10504000306D229F170B347D2D2D267F071B0C3EC4
:10505000147D071273959010280BEA306D22901082
:105060002A691E00020BEA009F100B34901036696B
:105070005E00027D269D251B0C3E147D0712739554
:10508000901036693E00020BEA201B1C793E00029C
:105090001BEA20901036693E00027D139010280B09
:1050A000EA309D3190102A695E00027D252D263E52
:1050B000147D07127395901036693E00020BEA20AA
:1050C0007D139010280BEA309D3190102A695E0004
:1050D000027D269D253E147D0712739590102A6946
:1050E0003E00020BEA200B1C793E00021BEA2090D6
:1050F000102E691E00020BEA0090102A693E000281
:105100000BEA20BF103803024FF7DA3B22CA69CA04
:10511000F87CFB7D507D417D127D036D339010182E
:105120001BEA3090101A1BEA300A2FBD025003020E
:10513000528BBD42500302528BBD12500302528B60
:10514000BD52500302528B7D249D2090101C1BEAFF
:10515000207D659D619010241BEA009010261BEABB
:1051600010BE24000008097E240001901020802B2E
:1051700090101C0BEA204D2278089010201BEA307A
:10518000801C7E24FFFF9010201BEA2090101C0B37
:10519000EA206E24FFFF0B2490101C1BEA20BE6443
:1051A0000000080C7E2400019010221BEA20801CC5
:1051B0004D6678089010221BEA3080107E34FFFF85
:1051C0009010221BEA306E64FFFF0B6490101C0BE2
:1051D000EA30BD36080890101E1BEA308006901099
:1051E0001E1BEA606D339010160252739010240B50
:1051F000EA309010260BEA200A1F9010140BEA00E8
:10520000124F8A90101C0BEA209010180BEA302DD8
:10521000321BEA3090101A0BEA302D361BEA309020
:10522000101E0BEA209010180BEA30BD32081990BE
:1052300010189D321BEA309010200BEA10901024B9
:105240000BEA302D311BEA3090101A0BEA30BD32D8
:10525000081990101A9D321BEA309010220BEA2098
:105260009010260BEA302D321BEA309010160BEA14
:10527000300B341BEA3090101E0BEA200B249010E8
:10528000160BEA30BD3238030251ECDAF8DA692243
:10529000CA3B90102BF07F309010291BEA20901011
:1052A000271BEA309010270BEA3090102D1BEA30B4
:1052B000E4804790102FE0600302537790102BE0BA
:1052C0000A1B7D311E349010C10BEA209D239010E3
:1052D000270BEA30BD3228030254069010C30BEAB4
:1052E000009D019010290BEA20BD202803025406DE
:1052F0007E3BA0BEA0802809740190102FF00253BD
:10530000FEBEA00D78189010292D121BEA109010E7
:105310002D0BEA109010271BEA100B74805490108C
:105320002BE0BEB018401A7CBA7E301890102C7E4C
:10533000EB201256E19010270BEA302E34000C803F
:105340002E9010270BEA309010290BEA207E3BB0FC
:1053500090102B7EEB3090102C7EEB201256E190BB
:10536000102BE00A2B1E249010270BEA302D321B45
:10537000EA300B740253FE90102BE00A2B9010C100
:105380000BEA109D129010270BEA30BD3138779050
:1053900010C30BEA109D129010290BEA20BD213892
:1053A00065E490102FF090102BE0B4200B7F039059
:1053B000102CE0124ABC803390102BE0B4181790E8
:1053C00010270BEA309010290BEA207F0390102C55
:1053D000E0124C5680159010270BEA309010290BE4
:1053E000EA207F0390102CE0124DF00B7590102BEB
:1053F000E00A2B9010270BEA302D321BEA307E3B5F
:10540000B060030252B3DA3B22CA3B12728CBE3444
:10541000EF1568030255727E34000E9011301BEABE
:10542000307E1410EA7E0400017E180028126D8E72
:105430009010F7E00A7B6D667E34FFFF126C2FBE82
:1054400038000B68030255729010EDE07CEB6CFFA6
:105450009010ECE00A3B4D737CDE7CEF6CFF90100B
:10546000EBE00A3B4D737CCD7CDE7CEF6CFF901053
:10547000EAE00A3B4D737F137CBC1233227E14BCDE
:10548000207E044CBE12325B901061793E00021BFC
:10549000EA209010F1E07CEB6CFF9010F0E00A3B0A
:1054A0004D737CDE7CEF6CFF9010EFE00A3B4D7398
:1054B0007CCD7CDE7CEF6CFF9010EEE00A3B4D7300
:1054C0007F137CBC1233227E14BC207E044CBE129F
:1054D000325B901065793E00021BEA206D3390101C
:1054E000691BEA309010F3E00A2B9010690BEA3048
:1054F0004D321BEA309010690BEA307C676C771BE9
:10550000EA309010F2E00A2B9010690BEA304D322D
:105510001BEA306D3390106B1BEA309010F5E00AF7
:105520002B90106B0BEA304D321BEA3090106B0B56
:10553000EA307C676C771BEA309010F4E00A2B901D
:10554000106B0BEA304D321BEA309010F6E09010F1
:105550006DF090106DE0600A749090106EF074D051
:10556000800874D090106EF0749090106FF07401F9
:105570008001E4DA3B22CAF87E14769F7E0400FFA5
:105580001259797E34FFFF90103A1BEA306D337E5A
:105590002400189010C10BEA109010C30BEA009E73
:1055A000040018126D1B6CFF7E7002AC7F2E34104D
:1055B0009F7A71827A61830BEA309010BD1BEA30CA
:1055C000740FACBF9010C10BEA101E149E1400198A
:1055D0002D157D319010C30BEA001E049E040019A6
:1055E0002D057D202E14003C2E04003C126F9A7E67
:1055F0003400641274690BF0BEF00578AB6CFF7E6A
:105600007002AC7F2E34109F7A71827A61830BEA2C
:10561000309010BD1BEA307E7023AC7F2E340032F8
:105620007E24003C741E125AB37E340064127469E6
:105630000BF0BEF00578C87E3405DC1274696CFF8F
:105640007E7002AC7F2E34109F7A71827A61830B58
:10565000EA309010BD1BEA3090103A1BEA30740F0C
:10566000ACBF9010C10BEA101E149E1400192D152A
:105670007D319010C30BEA001E049E0400192D0515
:105680007D202E14003C2E04003C126D1B7E340045
:10569000641274690BF0BEF00578A56CFF7E700291
:1056A000AC7F2E34109F7A71827A61830BEA00906E
:1056B00010BD1BEA007E7023AC7F2E3400327E24A6
:1056C000003C7E14001E124F8A7E340064127469FE
:1056D0000BF0BEF00540C67E3405DC127469DAF8C2
:1056E00022CA3B9010327AEB209010317AEB309046
:1056F0001030F07D727D639010361BEA20901031DF
:10570000E00A5B7D351E341E341E347D255E240088
:105710000768067E44000180026D442D431E54AD8F
:1057200054901038F0901030E00A5B9E54002090A6
:105730001030F0E4901035F002581E9010317EEBDE
:1057400070A5BF0C189010307EEB50740CAC5B90C1
:105750001035E00A1B2D212E2412A9801AA5BF1096
:105760001E9010307EEB507410AC5B901035E00A48
:105770001B2D212E241E8D7A51827A41838025A5EE
:10578000BF1802800302582F9010307EEB707424F3
:10579000AC7B901035E00A2B2D322E34054D7A71FA
:1057A000827A6183E493901033F0E4901034F090A7
:1057B0001033E030E7097D367D279010BD800D90D5
:1057C0001032E0700D7D367D279010BF0BEA10126D
:1057D0007497901033E03EB0F00B749010C30BEA56
:1057E00030BD73504A9010360BEA307D179D1390F0
:1057F0001031E00A2BBD1278107D730B649010C13C
:105800000BEA30BD635028800F901034E004F09014
:105810001034E0BEB0084097901035E004F09010CE
:10582000387EEBA0901035E0BCBA500302573BDA4B
:105830003B22E49010480BEA3099346CFF7E240040
:10584000017CBF60053E241478FB901060E00A3BA9
:105850005D3278030259567E1002AC1F7D102E1463
:10586000104C7A31827A21830BEA109010C10BEA36
:1058700030BD13400302596C2E0410567A11827AFF
:1058800001830BEA009010C30BEA30BD0340030212
:10589000596C7E9004AC9F2E4410007A91827A81DC
:1058A000830BEA50BE54FFFF781A7A91827A818383
:1058B0001BEA107404ACBF2E5410027AB1827AA194
:1058C000831BEA000A3F6D222F112E2400FF2E18A1
:1058D00077850B1A509010141BEA507A91827A81C6
:1058E000830BEA307E5004AC5F2E2410027A518282
:1058F0007A41830BEA20740212510D7E7002AC7F54
:105900007D232E24104C7A51827A41830BEA407E0B
:105910005004AC5F7D522E5410007AB1827AA1837C
:105920001BEA402E3410567A71827A61830BEA307A
:105930002E2410027A51827A41831BEA309010C1E2
:105940000BEA209E240018BD422821BE34001050CE
:105950001B12704780167E24FFFF7E7004AC7F2EE2
:105960003410007A71827A61831BEA200BF0BEF05A
:1059700005680302583D025832CA3B7F307E34FF2F
:10598000FF126C2F7E34001F90103A1BEA306D22FC
:105990006D339010C10BEA107E040014126D1B7E53
:1059A0003407E09010BD1BEA306D337E0400147D97
:1059B000209010C10BEA10125BEC7E34001F901097
:1059C000BD1BEA306D337E0400157D209010C10BA5
:1059D000EA10125BEC7E34F8009010BD1BEA306DCB
:1059E000337E0400167D209010C10BEA10125BEC90
:1059F0007E34001F90103A1BEA306D339010C30BB9
:105A0000EA007D209E2400149010C10BEA10126D54
:105A10001B7E3407E09010BD1BEA306D339010C33D
:105A20000BEA009E0400147D209010C10BEA1012B6
:105A30005BEC7E34001F9010BD1BEA306D3390107C
:105A4000C30BEA009E0400157D209010C10BEA10E4
:105A5000125BEC7E34F8009010BD1BEA306D339081
:105A600010C30BEA009E0400167D209010C10BEAC3
:105A700010125BEC7E34FFFF9010BD1BEA30740106
:105A8000901024F06D337E2400027F037410126A9C
:105A9000BF7401901024F06D339010C30BEA209E68
:105AA0002400127E1477307E0400FF7410126ABF47
:105AB000DA3B22CA3B7D727D636D339010001BEA96
:105AC000300A3B9010021BEA300A2B3E247E340041
:105AD000039D32901004025BD39010000BEA302D2E
